{"contracts/PokemonFactory.sol":{"PokemonFactory":{"abi":[{"anonymous":false,"inputs":[{"indexed":false,"internalType":"address","name":"sender","type":"address"},{"indexed":false,"internalType":"string","name":"message","type":"string"}],"name":"eventNewPokemon","type":"event"},{"inputs":[{"internalType":"string","name":"_name","type":"string"},{"internalType":"string","name":"_description","type":"string"},{"internalType":"uint256","name":"_id","type":"uint256"}],"name":"createHability","outputs":[],"stateMutability":"nonpayable","type":"function"},{"inputs":[{"internalType":"string","name":"_name","type":"string"},{"internalType":"uint256","name":"_id","type":"uint256"},{"internalType":"uint256[]","name":"_habilityIds","type":"uint256[]"},{"internalType":"uint256[]","name":"_pokemonType","type":"uint256[]"},{"internalType":"uint256[]","name":"_pokemonWeaknesses","type":"uint256[]"}],"name":"createPokemon","outputs":[],"stateMutability":"nonpayable","type":"function"},{"inputs":[{"internalType":"string","name":"_name","type":"string"},{"internalType":"string","name":"_description","type":"string"},{"internalType":"uint256","name":"_id","type":"uint256"}],"name":"createType","outputs":[],"stateMutability":"nonpayable","type":"function"},{"inputs":[{"internalType":"string","name":"_name","type":"string"},{"internalType":"string","name":"_description","type":"string"},{"internalType":"uint256","name":"_id","type":"uint256"}],"name":"createWeaknesses","outputs":[],"stateMutability":"nonpayable","type":"function"},{"inputs":[],"name":"getAllHabilities","outputs":[{"components":[{"internalType":"string","name":"name","type":"string"},{"internalType":"string","name":"description","type":"string"}],"internalType":"struct PokemonFactory.Hability[]","name":"","type":"tuple[]"}],"stateMutability":"view","type":"function"},{"inputs":[],"name":"getAllPokemons","outputs":[{"components":[{"internalType":"uint256","name":"id","type":"uint256"},{"internalType":"string","name":"name","type":"string"},{"internalType":"uint256[]","name":"habilitys","type":"uint256[]"},{"internalType":"uint256[]","name":"pokemonType","type":"uint256[]"},{"internalType":"uint256[]","name":"pokemonWeaknesses","type":"uint256[]"}],"internalType":"struct PokemonFactory.Pokemon[]","name":"","type":"tuple[]"}],"stateMutability":"view","type":"function"},{"inputs":[],"name":"getAllTypes","outputs":[{"components":[{"internalType":"string","name":"name","type":"string"},{"internalType":"string","name":"description","type":"string"}],"internalType":"struct PokemonFactory.PokemonType[]","name":"","type":"tuple[]"}],"stateMutability":"view","type":"function"},{"inputs":[],"name":"getAllWeaknesses","outputs":[{"components":[{"internalType":"string","name":"name","type":"string"},{"internalType":"string","name":"description","type":"string"}],"internalType":"struct PokemonFactory.PokemonWeaknesses[]","name":"","type":"tuple[]"}],"stateMutability":"view","type":"function"},{"inputs":[],"name":"getResult","outputs":[{"internalType":"uint256","name":"product","type":"uint256"},{"internalType":"uint256","name":"sum","type":"uint256"}],"stateMutability":"pure","type":"function"},{"inputs":[{"internalType":"uint256","name":"","type":"uint256"}],"name":"habilityById","outputs":[{"internalType":"string","name":"name","type":"string"},{"internalType":"string","name":"description","type":"string"}],"stateMutability":"view","type":"function"},{"inputs":[{"internalType":"uint256","name":"","type":"uint256"}],"name":"pokemonToOwner","outputs":[{"internalType":"address","name":"","type":"address"}],"stateMutability":"view","type":"function"},{"inputs":[{"internalType":"uint256","name":"","type":"uint256"}],"name":"pokemonWeaknessesById","outputs":[{"internalType":"string","name":"name","type":"string"},{"internalType":"string","name":"description","type":"string"}],"stateMutability":"view","type":"function"},{"inputs":[{"internalType":"uint256","name":"","type":"uint256"}],"name":"pokemontypeById","outputs":[{"internalType":"string","name":"name","type":"string"},{"internalType":"string","name":"description","type":"string"}],"stateMutability":"view","type":"function"}],"evm":{"bytecode":{"linkReferences":{},"object":"608060405234801561001057600080fd5b506122d8806100206000396000f3fe608060405234801561001057600080fd5b50600436106100cf5760003560e01c806345d684311161008c578063b6e76f0911610066578063b6e76f0914610214578063b9388fd214610245578063ddf5ba4e14610263578063de2927891461027f576100cf565b806345d68431146101a95780635e916790146101da57806390dc9cb9146101f8576100cf565b806309dddcf0146100d457806310bea8ae146100f257806312efb9df146101235780632f7467b31461013f57806338a5be091461016f578063408984081461018b575b600080fd5b6100dc61029e565b6040516100e9919061139b565b60405180910390f35b61010c60048036038101906101079190611407565b610421565b60405161011a92919061147e565b60405180910390f35b61013d600480360381019061013891906115ea565b610555565b005b61015960048036038101906101549190611407565b610611565b60405161016691906116b6565b60405180910390f35b610189600480360381019061018491906115ea565b610644565b005b610193610700565b6040516101a091906117d7565b60405180910390f35b6101c360048036038101906101be9190611407565b610883565b6040516101d192919061147e565b60405180910390f35b6101e26109b7565b6040516101ef9190611a04565b60405180910390f35b610212600480360381019061020d91906115ea565b610bba565b005b61022e60048036038101906102299190611407565b610c76565b60405161023c92919061147e565b60405180910390f35b61024d610daa565b60405161025a9190611b2c565b60405180910390f35b61027d60048036038101906102789190611c16565b610f2d565b005b61028761116a565b604051610295929190611d10565b60405180910390f35b60606002805480602002602001604051908101604052809291908181526020016000905b8282101561041857838290600052602060002090600202016040518060400160405290816000820180546102f590611d68565b80601f016020809104026020016040519081016040528092919081815260200182805461032190611d68565b801561036e5780601f106103435761010080835404028352916020019161036e565b820191906000526020600020905b81548152906001019060200180831161035157829003601f168201915b5050505050815260200160018201805461038790611d68565b80601f01602080910402602001604051908101604052809291908181526020018280546103b390611d68565b80156104005780601f106103d557610100808354040283529160200191610400565b820191906000526020600020905b8154815290600101906020018083116103e357829003601f168201915b505050505081525050815260200190600101906102c2565b50505050905090565b600960205280600052604060002060009150905080600001805461044490611d68565b80601f016020809104026020016040519081016040528092919081815260200182805461047090611d68565b80156104bd5780601f10610492576101008083540402835291602001916104bd565b820191906000526020600020905b8154815290600101906020018083116104a057829003601f168201915b5050505050908060010180546104d290611d68565b80601f01602080910402602001604051908101604052809291908181526020018280546104fe90611d68565b801561054b5780601f106105205761010080835404028352916020019161054b565b820191906000526020600020905b81548152906001019060200180831161052e57829003601f168201915b5050505050905082565b60006040518060400160405280858152602001848152509050600181908060018154018082558091505060019003906000526020600020906002020160009091909190915060008201518160000190816105af9190611f45565b5060208201518160010190816105c59190611f45565b505050806007600084815260200190815260200160002060008201518160000190816105f19190611f45565b5060208201518160010190816106079190611f45565b5090505050505050565b60046020528060005260406000206000915054906101000a900473ffffffffffffffffffffffffffffffffffffffff1681565b600060405180604001604052808581526020018481525090506002819080600181540180825580915050600190039060005260206000209060020201600090919091909150600082015181600001908161069e9190611f45565b5060208201518160010190816106b49190611f45565b505050806008600084815260200190815260200160002060008201518160000190816106e09190611f45565b5060208201518160010190816106f69190611f45565b5090505050505050565b60606001805480602002602001604051908101604052809291908181526020016000905b8282101561087a578382906000526020600020906002020160405180604001604052908160008201805461075790611d68565b80601f016020809104026020016040519081016040528092919081815260200182805461078390611d68565b80156107d05780601f106107a5576101008083540402835291602001916107d0565b820191906000526020600020905b8154815290600101906020018083116107b357829003601f168201915b505050505081526020016001820180546107e990611d68565b80601f016020809104026020016040519081016040528092919081815260200182805461081590611d68565b80156108625780601f1061083757610100808354040283529160200191610862565b820191906000526020600020905b81548152906001019060200180831161084557829003601f168201915b50505050508152505081526020019060010190610724565b50505050905090565b60086020528060005260406000206000915090508060000180546108a690611d68565b80601f01602080910402602001604051908101604052809291908181526020018280546108d290611d68565b801561091f5780601f106108f45761010080835404028352916020019161091f565b820191906000526020600020905b81548152906001019060200180831161090257829003601f168201915b50505050509080600101805461093490611d68565b80601f016020809104026020016040519081016040528092919081815260200182805461096090611d68565b80156109ad5780601f10610982576101008083540402835291602001916109ad565b820191906000526020600020905b81548152906001019060200180831161099057829003601f168201915b5050505050905082565b60606000805480602002602001604051908101604052809291908181526020016000905b82821015610bb157838290600052602060002090600502016040518060a001604052908160008201548152602001600182018054610a1890611d68565b80601f0160208091040260200160405190810160405280929190818152602001828054610a4490611d68565b8015610a915780601f10610a6657610100808354040283529160200191610a91565b820191906000526020600020905b815481529060010190602001808311610a7457829003601f168201915b5050505050815260200160028201805480602002602001604051908101604052809291908181526020018280548015610ae957602002820191906000526020600020905b815481526020019060010190808311610ad5575b5050505050815260200160038201805480602002602001604051908101604052809291908181526020018280548015610b4157602002820191906000526020600020905b815481526020019060010190808311610b2d575b5050505050815260200160048201805480602002602001604051908101604052809291908181526020018280548015610b9957602002820191906000526020600020905b815481526020019060010190808311610b85575b505050505081525050815260200190600101906109db565b50505050905090565b6000604051806040016040528085815260200184815250905060038190806001815401808255809150506001900390600052602060002090600202016000909190919091506000820151816000019081610c149190611f45565b506020820151816001019081610c2a9190611f45565b50505080600960008481526020019081526020016000206000820151816000019081610c569190611f45565b506020820151816001019081610c6c9190611f45565b5090505050505050565b6007602052806000526040600020600091509050806000018054610c9990611d68565b80601f0160208091040260200160405190810160405280929190818152602001828054610cc590611d68565b8015610d125780601f10610ce757610100808354040283529160200191610d12565b820191906000526020600020905b815481529060010190602001808311610cf557829003601f168201915b505050505090806001018054610d2790611d68565b80601f0160208091040260200160405190810160405280929190818152602001828054610d5390611d68565b8015610da05780601f10610d7557610100808354040283529160200191610da0565b820191906000526020600020905b815481529060010190602001808311610d8357829003601f168201915b5050505050905082565b60606003805480602002602001604051908101604052809291908181526020016000905b82821015610f245783829060005260206000209060020201604051806040016040529081600082018054610e0190611d68565b80601f0160208091040260200160405190810160405280929190818152602001828054610e2d90611d68565b8015610e7a5780601f10610e4f57610100808354040283529160200191610e7a565b820191906000526020600020905b815481529060010190602001808311610e5d57829003601f168201915b50505050508152602001600182018054610e9390611d68565b80601f0160208091040260200160405190810160405280929190818152602001828054610ebf90611d68565b8015610f0c5780601f10610ee157610100808354040283529160200191610f0c565b820191906000526020600020905b815481529060010190602001808311610eef57829003601f168201915b50505050508152505081526020019060010190610dce565b50505050905090565b600085905060008511610f75576040517f08c379a0000000000000000000000000000000000000000000000000000000008152600401610f6c90612063565b60405180910390fd5b6002815111610fb9576040517f08c379a0000000000000000000000000000000000000000000000000000000008152600401610fb0906120f5565b60405180910390fd5b60006040518060a0016040528087815260200188815260200186815260200185815260200184815250908060018154018082558091505060019003906000526020600020906005020160009091909190915060008201518160000155602082015181600101908161102a9190611f45565b50604082015181600201908051906020019061104792919061119b565b50606082015181600301908051906020019061106492919061119b565b50608082015181600401908051906020019061108192919061119b565b505050336004600087815260200190815260200160002060006101000a81548173ffffffffffffffffffffffffffffffffffffffff021916908373ffffffffffffffffffffffffffffffffffffffff160217905550600560003373ffffffffffffffffffffffffffffffffffffffff1673ffffffffffffffffffffffffffffffffffffffff168152602001908152602001600020600081548092919061112690612144565b91905055507fe5a4c13681fc1ec969a5d1e2a8f13730bca81a4041367c6493477d52103b1ce23360405161115a91906121fe565b60405180910390a1505050505050565b6000806000600190506000600290508082611185919061222c565b93508082611193919061226e565b925050509091565b8280548282559060005260206000209081019282156111d7579160200282015b828111156111d65782518255916020019190600101906111bb565b5b5090506111e491906111e8565b5090565b5b808211156112015760008160009055506001016111e9565b5090565b600081519050919050565b600082825260208201905092915050565b6000819050602082019050919050565b600081519050919050565b600082825260208201905092915050565b60005b8381101561126b578082015181840152602081019050611250565b60008484015250505050565b6000601f19601f8301169050919050565b600061129382611231565b61129d818561123c565b93506112ad81856020860161124d565b6112b681611277565b840191505092915050565b600060408301600083015184820360008601526112de8282611288565b915050602083015184820360208601526112f88282611288565b9150508091505092915050565b600061131183836112c1565b905092915050565b6000602082019050919050565b600061133182611205565b61133b8185611210565b93508360208202850161134d85611221565b8060005b85811015611389578484038952815161136a8582611305565b945061137583611319565b925060208a01995050600181019050611351565b50829750879550505050505092915050565b600060208201905081810360008301526113b58184611326565b905092915050565b6000604051905090565b600080fd5b600080fd5b6000819050919050565b6113e4816113d1565b81146113ef57600080fd5b50565b600081359050611401816113db565b92915050565b60006020828403121561141d5761141c6113c7565b5b600061142b848285016113f2565b91505092915050565b600082825260208201905092915050565b600061145082611231565b61145a8185611434565b935061146a81856020860161124d565b61147381611277565b840191505092915050565b600060408201905081810360008301526114988185611445565b905081810360208301526114ac8184611445565b90509392505050565b600080fd5b600080fd5b7f4e487b7100000000000000000000000000000000000000000000000000000000600052604160045260246000fd5b6114f782611277565b810181811067ffffffffffffffff82111715611516576115156114bf565b5b80604052505050565b60006115296113bd565b905061153582826114ee565b919050565b600067ffffffffffffffff821115611555576115546114bf565b5b61155e82611277565b9050602081019050919050565b82818337600083830152505050565b600061158d6115888461153a565b61151f565b9050828152602081018484840111156115a9576115a86114ba565b5b6115b484828561156b565b509392505050565b600082601f8301126115d1576115d06114b5565b5b81356115e184826020860161157a565b91505092915050565b600080600060608486031215611603576116026113c7565b5b600084013567ffffffffffffffff811115611621576116206113cc565b5b61162d868287016115bc565b935050602084013567ffffffffffffffff81111561164e5761164d6113cc565b5b61165a868287016115bc565b925050604061166b868287016113f2565b9150509250925092565b600073ffffffffffffffffffffffffffffffffffffffff82169050919050565b60006116a082611675565b9050919050565b6116b081611695565b82525050565b60006020820190506116cb60008301846116a7565b92915050565b600081519050919050565b600082825260208201905092915050565b6000819050602082019050919050565b6000604083016000830151848203600086015261171a8282611288565b915050602083015184820360208601526117348282611288565b9150508091505092915050565b600061174d83836116fd565b905092915050565b6000602082019050919050565b600061176d826116d1565b61177781856116dc565b935083602082028501611789856116ed565b8060005b858110156117c557848403895281516117a68582611741565b94506117b183611755565b925060208a0199505060018101905061178d565b50829750879550505050505092915050565b600060208201905081810360008301526117f18184611762565b905092915050565b600081519050919050565b600082825260208201905092915050565b6000819050602082019050919050565b61182e816113d1565b82525050565b600081519050919050565b600082825260208201905092915050565b6000819050602082019050919050565b600061186c8383611825565b60208301905092915050565b6000602082019050919050565b600061189082611834565b61189a818561183f565b93506118a583611850565b8060005b838110156118d65781516118bd8882611860565b97506118c883611878565b9250506001810190506118a9565b5085935050505092915050565b600060a0830160008301516118fb6000860182611825565b50602083015184820360208601526119138282611288565b9150506040830151848203604086015261192d8282611885565b915050606083015184820360608601526119478282611885565b915050608083015184820360808601526119618282611885565b9150508091505092915050565b600061197a83836118e3565b905092915050565b6000602082019050919050565b600061199a826117f9565b6119a48185611804565b9350836020820285016119b685611815565b8060005b858110156119f257848403895281516119d3858261196e565b94506119de83611982565b925060208a019950506001810190506119ba565b50829750879550505050505092915050565b60006020820190508181036000830152611a1e818461198f565b905092915050565b600081519050919050565b600082825260208201905092915050565b6000819050602082019050919050565b60006040830160008301518482036000860152611a6f8282611288565b91505060208301518482036020860152611a898282611288565b9150508091505092915050565b6000611aa28383611a52565b905092915050565b6000602082019050919050565b6000611ac282611a26565b611acc8185611a31565b935083602082028501611ade85611a42565b8060005b85811015611b1a5784840389528151611afb8582611a96565b9450611b0683611aaa565b925060208a01995050600181019050611ae2565b50829750879550505050505092915050565b60006020820190508181036000830152611b468184611ab7565b905092915050565b600067ffffffffffffffff821115611b6957611b686114bf565b5b602082029050602081019050919050565b600080fd5b6000611b92611b8d84611b4e565b61151f565b90508083825260208201905060208402830185811115611bb557611bb4611b7a565b5b835b81811015611bde5780611bca88826113f2565b845260208401935050602081019050611bb7565b5050509392505050565b600082601f830112611bfd57611bfc6114b5565b5b8135611c0d848260208601611b7f565b91505092915050565b600080600080600060a08688031215611c3257611c316113c7565b5b600086013567ffffffffffffffff811115611c5057611c4f6113cc565b5b611c5c888289016115bc565b9550506020611c6d888289016113f2565b945050604086013567ffffffffffffffff811115611c8e57611c8d6113cc565b5b611c9a88828901611be8565b935050606086013567ffffffffffffffff811115611cbb57611cba6113cc565b5b611cc788828901611be8565b925050608086013567ffffffffffffffff811115611ce857611ce76113cc565b5b611cf488828901611be8565b9150509295509295909350565b611d0a816113d1565b82525050565b6000604082019050611d256000830185611d01565b611d326020830184611d01565b9392505050565b7f4e487b7100000000000000000000000000000000000000000000000000000000600052602260045260246000fd5b60006002820490506001821680611d8057607f821691505b602082108103611d9357611d92611d39565b5b50919050565b60008190508160005260206000209050919050565b60006020601f8301049050919050565b600082821b905092915050565b600060088302611dfb7fffffffffffffffffffffffffffffffffffffffffffffffffffffffffffffffff82611dbe565b611e058683611dbe565b95508019841693508086168417925050509392505050565b6000819050919050565b6000611e42611e3d611e38846113d1565b611e1d565b6113d1565b9050919050565b6000819050919050565b611e5c83611e27565b611e70611e6882611e49565b848454611dcb565b825550505050565b600090565b611e85611e78565b611e90818484611e53565b505050565b5b81811015611eb457611ea9600082611e7d565b600181019050611e96565b5050565b601f821115611ef957611eca81611d99565b611ed384611dae565b81016020851015611ee2578190505b611ef6611eee85611dae565b830182611e95565b50505b505050565b600082821c905092915050565b6000611f1c60001984600802611efe565b1980831691505092915050565b6000611f358383611f0b565b9150826002028217905092915050565b611f4e82611231565b67ffffffffffffffff811115611f6757611f666114bf565b5b611f718254611d68565b611f7c828285611eb8565b600060209050601f831160018114611faf5760008415611f9d578287015190505b611fa78582611f29565b86555061200f565b601f198416611fbd86611d99565b60005b82811015611fe557848901518255600182019150602085019450602081019050611fc0565b868310156120025784890151611ffe601f891682611f0b565b8355505b6001600288020188555050505b505050505050565b7f496420697320696e76616c69642c20656e74657220612076616c696420696400600082015250565b600061204d601f83611434565b915061205882612017565b602082019050919050565b6000602082019050818103600083015261207c81612040565b9050919050565b7f546865206e616d65206d7573742068617665206d6f7265207468616e2074776f60008201527f2063686172616374657273000000000000000000000000000000000000000000602082015250565b60006120df602b83611434565b91506120ea82612083565b604082019050919050565b6000602082019050818103600083015261210e816120d2565b9050919050565b7f4e487b7100000000000000000000000000000000000000000000000000000000600052601160045260246000fd5b600061214f826113d1565b91507fffffffffffffffffffffffffffffffffffffffffffffffffffffffffffffffff820361218157612180612115565b5b600182019050919050565b7f6e657720706f6b656d6f6e2063726561746564207375636365737366756c6c7960008201527f2100000000000000000000000000000000000000000000000000000000000000602082015250565b60006121e8602183611434565b91506121f38261218c565b604082019050919050565b600060408201905061221360008301846116a7565b8181036020830152612224816121db565b905092915050565b6000612237826113d1565b9150612242836113d1565b9250828202612250816113d1565b9150828204841483151761226757612266612115565b5b5092915050565b6000612279826113d1565b9150612284836113d1565b925082820190508082111561229c5761229b612115565b5b9291505056fea2646970667358221220dbb7bd790a8a9a00ee82cdfc484455af414d7134643fe8e5e50a1b2672e5bdf064736f6c63430008120033","opcodes":"PUSH1 0x80 PUSH1 0x40 MSTORE CALLVALUE DUP1 ISZERO PUSH2 0x10 JUMPI PUSH1 0x0 DUP1 REVERT JUMPDEST POP PUSH2 0x22D8 DUP1 PUSH2 0x20 PUSH1 0x0 CODECOPY PUSH1 0x0 RETURN INVALID PUSH1 0x80 PUSH1 0x40 MSTORE CALLVALUE DUP1 ISZERO PUSH2 0x10 JUMPI PUSH1 0x0 DUP1 REVERT JUMPDEST POP PUSH1 0x4 CALLDATASIZE LT PUSH2 0xCF JUMPI PUSH1 0x0 CALLDATALOAD PUSH1 0xE0 SHR DUP1 PUSH4 0x45D68431 GT PUSH2 0x8C JUMPI DUP1 PUSH4 0xB6E76F09 GT PUSH2 0x66 JUMPI DUP1 PUSH4 0xB6E76F09 EQ PUSH2 0x214 JUMPI DUP1 PUSH4 0xB9388FD2 EQ PUSH2 0x245 JUMPI DUP1 PUSH4 0xDDF5BA4E EQ PUSH2 0x263 JUMPI DUP1 PUSH4 0xDE292789 EQ PUSH2 0x27F JUMPI PUSH2 0xCF JUMP JUMPDEST DUP1 PUSH4 0x45D68431 EQ PUSH2 0x1A9 JUMPI DUP1 PUSH4 0x5E916790 EQ PUSH2 0x1DA JUMPI DUP1 PUSH4 0x90DC9CB9 EQ PUSH2 0x1F8 JUMPI PUSH2 0xCF JUMP JUMPDEST DUP1 PUSH4 0x9DDDCF0 EQ PUSH2 0xD4 JUMPI DUP1 PUSH4 0x10BEA8AE EQ PUSH2 0xF2 JUMPI DUP1 PUSH4 0x12EFB9DF EQ PUSH2 0x123 JUMPI DUP1 PUSH4 0x2F7467B3 EQ PUSH2 0x13F JUMPI DUP1 PUSH4 0x38A5BE09 EQ PUSH2 0x16F JUMPI DUP1 PUSH4 0x40898408 EQ PUSH2 0x18B JUMPI JUMPDEST PUSH1 0x0 DUP1 REVERT JUMPDEST PUSH2 0xDC PUSH2 0x29E JUMP JUMPDEST PUSH1 0x40 MLOAD PUSH2 0xE9 SWAP2 SWAP1 PUSH2 0x139B JUMP JUMPDEST PUSH1 0x40 MLOAD DUP1 SWAP2 SUB SWAP1 RETURN JUMPDEST PUSH2 0x10C PUSH1 0x4 DUP1 CALLDATASIZE SUB DUP2 ADD SWAP1 PUSH2 0x107 SWAP2 SWAP1 PUSH2 0x1407 JUMP JUMPDEST PUSH2 0x421 JUMP JUMPDEST PUSH1 0x40 MLOAD PUSH2 0x11A SWAP3 SWAP2 SWAP1 PUSH2 0x147E JUMP JUMPDEST PUSH1 0x40 MLOAD DUP1 SWAP2 SUB SWAP1 RETURN JUMPDEST PUSH2 0x13D PUSH1 0x4 DUP1 CALLDATASIZE SUB DUP2 ADD SWAP1 PUSH2 0x138 SWAP2 SWAP1 PUSH2 0x15EA JUMP JUMPDEST PUSH2 0x555 JUMP JUMPDEST STOP JUMPDEST PUSH2 0x159 PUSH1 0x4 DUP1 CALLDATASIZE SUB DUP2 ADD SWAP1 PUSH2 0x154 SWAP2 SWAP1 PUSH2 0x1407 JUMP JUMPDEST PUSH2 0x611 JUMP JUMPDEST PUSH1 0x40 MLOAD PUSH2 0x166 SWAP2 SWAP1 PUSH2 0x16B6 JUMP JUMPDEST PUSH1 0x40 MLOAD DUP1 SWAP2 SUB SWAP1 RETURN JUMPDEST PUSH2 0x189 PUSH1 0x4 DUP1 CALLDATASIZE SUB DUP2 ADD SWAP1 PUSH2 0x184 SWAP2 SWAP1 PUSH2 0x15EA JUMP JUMPDEST PUSH2 0x644 JUMP JUMPDEST STOP JUMPDEST PUSH2 0x193 PUSH2 0x700 JUMP JUMPDEST PUSH1 0x40 MLOAD PUSH2 0x1A0 SWAP2 SWAP1 PUSH2 0x17D7 JUMP JUMPDEST PUSH1 0x40 MLOAD DUP1 SWAP2 SUB SWAP1 RETURN JUMPDEST PUSH2 0x1C3 PUSH1 0x4 DUP1 CALLDATASIZE SUB DUP2 ADD SWAP1 PUSH2 0x1BE SWAP2 SWAP1 PUSH2 0x1407 JUMP JUMPDEST PUSH2 0x883 JUMP JUMPDEST PUSH1 0x40 MLOAD PUSH2 0x1D1 SWAP3 SWAP2 SWAP1 PUSH2 0x147E JUMP JUMPDEST PUSH1 0x40 MLOAD DUP1 SWAP2 SUB SWAP1 RETURN JUMPDEST PUSH2 0x1E2 PUSH2 0x9B7 JUMP JUMPDEST PUSH1 0x40 MLOAD PUSH2 0x1EF SWAP2 SWAP1 PUSH2 0x1A04 JUMP JUMPDEST PUSH1 0x40 MLOAD DUP1 SWAP2 SUB SWAP1 RETURN JUMPDEST PUSH2 0x212 PUSH1 0x4 DUP1 CALLDATASIZE SUB DUP2 ADD SWAP1 PUSH2 0x20D SWAP2 SWAP1 PUSH2 0x15EA JUMP JUMPDEST PUSH2 0xBBA JUMP JUMPDEST STOP JUMPDEST PUSH2 0x22E PUSH1 0x4 DUP1 CALLDATASIZE SUB DUP2 ADD SWAP1 PUSH2 0x229 SWAP2 SWAP1 PUSH2 0x1407 JUMP JUMPDEST PUSH2 0xC76 JUMP JUMPDEST PUSH1 0x40 MLOAD PUSH2 0x23C SWAP3 SWAP2 SWAP1 PUSH2 0x147E JUMP JUMPDEST PUSH1 0x40 MLOAD DUP1 SWAP2 SUB SWAP1 RETURN JUMPDEST PUSH2 0x24D PUSH2 0xDAA JUMP JUMPDEST PUSH1 0x40 MLOAD PUSH2 0x25A SWAP2 SWAP1 PUSH2 0x1B2C JUMP JUMPDEST PUSH1 0x40 MLOAD DUP1 SWAP2 SUB SWAP1 RETURN JUMPDEST PUSH2 0x27D PUSH1 0x4 DUP1 CALLDATASIZE SUB DUP2 ADD SWAP1 PUSH2 0x278 SWAP2 SWAP1 PUSH2 0x1C16 JUMP JUMPDEST PUSH2 0xF2D JUMP JUMPDEST STOP JUMPDEST PUSH2 0x287 PUSH2 0x116A JUMP JUMPDEST PUSH1 0x40 MLOAD PUSH2 0x295 SWAP3 SWAP2 SWAP1 PUSH2 0x1D10 JUMP JUMPDEST PUSH1 0x40 MLOAD DUP1 SWAP2 SUB SWAP1 RETURN JUMPDEST PUSH1 0x60 PUSH1 0x2 DUP1 SLOAD DUP1 PUSH1 0x20 MUL PUSH1 0x20 ADD PUSH1 0x40 MLOAD SWAP1 DUP2 ADD PUSH1 0x40 MSTORE DUP1 SWAP3 SWAP2 SWAP1 DUP2 DUP2 MSTORE PUSH1 0x20 ADD PUSH1 0x0 SWAP1 JUMPDEST DUP3 DUP3 LT ISZERO PUSH2 0x418 JUMPI DUP4 DUP3 SWAP1 PUSH1 0x0 MSTORE PUSH1 0x20 PUSH1 0x0 KECCAK256 SWAP1 PUSH1 0x2 MUL ADD PUSH1 0x40 MLOAD DUP1 PUSH1 0x40 ADD PUSH1 0x40 MSTORE SWAP1 DUP2 PUSH1 0x0 DUP3 ADD DUP1 SLOAD PUSH2 0x2F5 SWAP1 PUSH2 0x1D68 JUMP JUMPDEST DUP1 PUSH1 0x1F ADD PUSH1 0x20 DUP1 SWAP2 DIV MUL PUSH1 0x20 ADD PUSH1 0x40 MLOAD SWAP1 DUP2 ADD PUSH1 0x40 MSTORE DUP1 SWAP3 SWAP2 SWAP1 DUP2 DUP2 MSTORE PUSH1 0x20 ADD DUP3 DUP1 SLOAD PUSH2 0x321 SWAP1 PUSH2 0x1D68 JUMP JUMPDEST DUP1 ISZERO PUSH2 0x36E JUMPI DUP1 PUSH1 0x1F LT PUSH2 0x343 JUMPI PUSH2 0x100 DUP1 DUP4 SLOAD DIV MUL DUP4 MSTORE SWAP2 PUSH1 0x20 ADD SWAP2 PUSH2 0x36E JUMP JUMPDEST DUP3 ADD SWAP2 SWAP1 PUSH1 0x0 MSTORE PUSH1 0x20 PUSH1 0x0 KECCAK256 SWAP1 JUMPDEST DUP2 SLOAD DUP2 MSTORE SWAP1 PUSH1 0x1 ADD SWAP1 PUSH1 0x20 ADD DUP1 DUP4 GT PUSH2 0x351 JUMPI DUP3 SWAP1 SUB PUSH1 0x1F AND DUP3 ADD SWAP2 JUMPDEST POP POP POP POP POP DUP2 MSTORE PUSH1 0x20 ADD PUSH1 0x1 DUP3 ADD DUP1 SLOAD PUSH2 0x387 SWAP1 PUSH2 0x1D68 JUMP JUMPDEST DUP1 PUSH1 0x1F ADD PUSH1 0x20 DUP1 SWAP2 DIV MUL PUSH1 0x20 ADD PUSH1 0x40 MLOAD SWAP1 DUP2 ADD PUSH1 0x40 MSTORE DUP1 SWAP3 SWAP2 SWAP1 DUP2 DUP2 MSTORE PUSH1 0x20 ADD DUP3 DUP1 SLOAD PUSH2 0x3B3 SWAP1 PUSH2 0x1D68 JUMP JUMPDEST DUP1 ISZERO PUSH2 0x400 JUMPI DUP1 PUSH1 0x1F LT PUSH2 0x3D5 JUMPI PUSH2 0x100 DUP1 DUP4 SLOAD DIV MUL DUP4 MSTORE SWAP2 PUSH1 0x20 ADD SWAP2 PUSH2 0x400 JUMP JUMPDEST DUP3 ADD SWAP2 SWAP1 PUSH1 0x0 MSTORE PUSH1 0x20 PUSH1 0x0 KECCAK256 SWAP1 JUMPDEST DUP2 SLOAD DUP2 MSTORE SWAP1 PUSH1 0x1 ADD SWAP1 PUSH1 0x20 ADD DUP1 DUP4 GT PUSH2 0x3E3 JUMPI DUP3 SWAP1 SUB PUSH1 0x1F AND DUP3 ADD SWAP2 JUMPDEST POP POP POP POP POP DUP2 MSTORE POP POP DUP2 MSTORE PUSH1 0x20 ADD SWAP1 PUSH1 0x1 ADD SWAP1 PUSH2 0x2C2 JUMP JUMPDEST POP POP POP POP SWAP1 POP SWAP1 JUMP JUMPDEST PUSH1 0x9 PUSH1 0x20 MSTORE DUP1 PUSH1 0x0 MSTORE PUSH1 0x40 PUSH1 0x0 KECCAK256 PUSH1 0x0 SWAP2 POP SWAP1 POP DUP1 PUSH1 0x0 ADD DUP1 SLOAD PUSH2 0x444 SWAP1 PUSH2 0x1D68 JUMP JUMPDEST DUP1 PUSH1 0x1F ADD PUSH1 0x20 DUP1 SWAP2 DIV MUL PUSH1 0x20 ADD PUSH1 0x40 MLOAD SWAP1 DUP2 ADD PUSH1 0x40 MSTORE DUP1 SWAP3 SWAP2 SWAP1 DUP2 DUP2 MSTORE PUSH1 0x20 ADD DUP3 DUP1 SLOAD PUSH2 0x470 SWAP1 PUSH2 0x1D68 JUMP JUMPDEST DUP1 ISZERO PUSH2 0x4BD JUMPI DUP1 PUSH1 0x1F LT PUSH2 0x492 JUMPI PUSH2 0x100 DUP1 DUP4 SLOAD DIV MUL DUP4 MSTORE SWAP2 PUSH1 0x20 ADD SWAP2 PUSH2 0x4BD JUMP JUMPDEST DUP3 ADD SWAP2 SWAP1 PUSH1 0x0 MSTORE PUSH1 0x20 PUSH1 0x0 KECCAK256 SWAP1 JUMPDEST DUP2 SLOAD DUP2 MSTORE SWAP1 PUSH1 0x1 ADD SWAP1 PUSH1 0x20 ADD DUP1 DUP4 GT PUSH2 0x4A0 JUMPI DUP3 SWAP1 SUB PUSH1 0x1F AND DUP3 ADD SWAP2 JUMPDEST POP POP POP POP POP SWAP1 DUP1 PUSH1 0x1 ADD DUP1 SLOAD PUSH2 0x4D2 SWAP1 PUSH2 0x1D68 JUMP JUMPDEST DUP1 PUSH1 0x1F ADD PUSH1 0x20 DUP1 SWAP2 DIV MUL PUSH1 0x20 ADD PUSH1 0x40 MLOAD SWAP1 DUP2 ADD PUSH1 0x40 MSTORE DUP1 SWAP3 SWAP2 SWAP1 DUP2 DUP2 MSTORE PUSH1 0x20 ADD DUP3 DUP1 SLOAD PUSH2 0x4FE SWAP1 PUSH2 0x1D68 JUMP JUMPDEST DUP1 ISZERO PUSH2 0x54B JUMPI DUP1 PUSH1 0x1F LT PUSH2 0x520 JUMPI PUSH2 0x100 DUP1 DUP4 SLOAD DIV MUL DUP4 MSTORE SWAP2 PUSH1 0x20 ADD SWAP2 PUSH2 0x54B JUMP JUMPDEST DUP3 ADD SWAP2 SWAP1 PUSH1 0x0 MSTORE PUSH1 0x20 PUSH1 0x0 KECCAK256 SWAP1 JUMPDEST DUP2 SLOAD DUP2 MSTORE SWAP1 PUSH1 0x1 ADD SWAP1 PUSH1 0x20 ADD DUP1 DUP4 GT PUSH2 0x52E JUMPI DUP3 SWAP1 SUB PUSH1 0x1F AND DUP3 ADD SWAP2 JUMPDEST POP POP POP POP POP SWAP1 POP DUP3 JUMP JUMPDEST PUSH1 0x0 PUSH1 0x40 MLOAD DUP1 PUSH1 0x40 ADD PUSH1 0x40 MSTORE DUP1 DUP6 DUP2 MSTORE PUSH1 0x20 ADD DUP5 DUP2 MSTORE POP SWAP1 POP PUSH1 0x1 DUP2 SWAP1 DUP1 PUSH1 0x1 DUP2 SLOAD ADD DUP1 DUP3 SSTORE DUP1 SWAP2 POP POP PUSH1 0x1 SWAP1 SUB SWAP1 PUSH1 0x0 MSTORE PUSH1 0x20 PUSH1 0x0 KECCAK256 SWAP1 PUSH1 0x2 MUL ADD PUSH1 0x0 SWAP1 SWAP2 SWAP1 SWAP2 SWAP1 SWAP2 POP PUSH1 0x0 DUP3 ADD MLOAD DUP2 PUSH1 0x0 ADD SWAP1 DUP2 PUSH2 0x5AF SWAP2 SWAP1 PUSH2 0x1F45 JUMP JUMPDEST POP PUSH1 0x20 DUP3 ADD MLOAD DUP2 PUSH1 0x1 ADD SWAP1 DUP2 PUSH2 0x5C5 SWAP2 SWAP1 PUSH2 0x1F45 JUMP JUMPDEST POP POP POP DUP1 PUSH1 0x7 PUSH1 0x0 DUP5 DUP2 MSTORE PUSH1 0x20 ADD SWAP1 DUP2 MSTORE PUSH1 0x20 ADD PUSH1 0x0 KECCAK256 PUSH1 0x0 DUP3 ADD MLOAD DUP2 PUSH1 0x0 ADD SWAP1 DUP2 PUSH2 0x5F1 SWAP2 SWAP1 PUSH2 0x1F45 JUMP JUMPDEST POP PUSH1 0x20 DUP3 ADD MLOAD DUP2 PUSH1 0x1 ADD SWAP1 DUP2 PUSH2 0x607 SWAP2 SWAP1 PUSH2 0x1F45 JUMP JUMPDEST POP SWAP1 POP POP POP POP POP POP JUMP JUMPDEST PUSH1 0x4 PUSH1 0x20 MSTORE DUP1 PUSH1 0x0 MSTORE PUSH1 0x40 PUSH1 0x0 KECCAK256 PUSH1 0x0 SWAP2 POP SLOAD SWAP1 PUSH2 0x100 EXP SWAP1 DIV PUSH20 0xFFFFFFFFFFFFFFFFFFFFFFFFFFFFFFFFFFFFFFFF AND DUP2 JUMP JUMPDEST PUSH1 0x0 PUSH1 0x40 MLOAD DUP1 PUSH1 0x40 ADD PUSH1 0x40 MSTORE DUP1 DUP6 DUP2 MSTORE PUSH1 0x20 ADD DUP5 DUP2 MSTORE POP SWAP1 POP PUSH1 0x2 DUP2 SWAP1 DUP1 PUSH1 0x1 DUP2 SLOAD ADD DUP1 DUP3 SSTORE DUP1 SWAP2 POP POP PUSH1 0x1 SWAP1 SUB SWAP1 PUSH1 0x0 MSTORE PUSH1 0x20 PUSH1 0x0 KECCAK256 SWAP1 PUSH1 0x2 MUL ADD PUSH1 0x0 SWAP1 SWAP2 SWAP1 SWAP2 SWAP1 SWAP2 POP PUSH1 0x0 DUP3 ADD MLOAD DUP2 PUSH1 0x0 ADD SWAP1 DUP2 PUSH2 0x69E SWAP2 SWAP1 PUSH2 0x1F45 JUMP JUMPDEST POP PUSH1 0x20 DUP3 ADD MLOAD DUP2 PUSH1 0x1 ADD SWAP1 DUP2 PUSH2 0x6B4 SWAP2 SWAP1 PUSH2 0x1F45 JUMP JUMPDEST POP POP POP DUP1 PUSH1 0x8 PUSH1 0x0 DUP5 DUP2 MSTORE PUSH1 0x20 ADD SWAP1 DUP2 MSTORE PUSH1 0x20 ADD PUSH1 0x0 KECCAK256 PUSH1 0x0 DUP3 ADD MLOAD DUP2 PUSH1 0x0 ADD SWAP1 DUP2 PUSH2 0x6E0 SWAP2 SWAP1 PUSH2 0x1F45 JUMP JUMPDEST POP PUSH1 0x20 DUP3 ADD MLOAD DUP2 PUSH1 0x1 ADD SWAP1 DUP2 PUSH2 0x6F6 SWAP2 SWAP1 PUSH2 0x1F45 JUMP JUMPDEST POP SWAP1 POP POP POP POP POP POP JUMP JUMPDEST PUSH1 0x60 PUSH1 0x1 DUP1 SLOAD DUP1 PUSH1 0x20 MUL PUSH1 0x20 ADD PUSH1 0x40 MLOAD SWAP1 DUP2 ADD PUSH1 0x40 MSTORE DUP1 SWAP3 SWAP2 SWAP1 DUP2 DUP2 MSTORE PUSH1 0x20 ADD PUSH1 0x0 SWAP1 JUMPDEST DUP3 DUP3 LT ISZERO PUSH2 0x87A JUMPI DUP4 DUP3 SWAP1 PUSH1 0x0 MSTORE PUSH1 0x20 PUSH1 0x0 KECCAK256 SWAP1 PUSH1 0x2 MUL ADD PUSH1 0x40 MLOAD DUP1 PUSH1 0x40 ADD PUSH1 0x40 MSTORE SWAP1 DUP2 PUSH1 0x0 DUP3 ADD DUP1 SLOAD PUSH2 0x757 SWAP1 PUSH2 0x1D68 JUMP JUMPDEST DUP1 PUSH1 0x1F ADD PUSH1 0x20 DUP1 SWAP2 DIV MUL PUSH1 0x20 ADD PUSH1 0x40 MLOAD SWAP1 DUP2 ADD PUSH1 0x40 MSTORE DUP1 SWAP3 SWAP2 SWAP1 DUP2 DUP2 MSTORE PUSH1 0x20 ADD DUP3 DUP1 SLOAD PUSH2 0x783 SWAP1 PUSH2 0x1D68 JUMP JUMPDEST DUP1 ISZERO PUSH2 0x7D0 JUMPI DUP1 PUSH1 0x1F LT PUSH2 0x7A5 JUMPI PUSH2 0x100 DUP1 DUP4 SLOAD DIV MUL DUP4 MSTORE SWAP2 PUSH1 0x20 ADD SWAP2 PUSH2 0x7D0 JUMP JUMPDEST DUP3 ADD SWAP2 SWAP1 PUSH1 0x0 MSTORE PUSH1 0x20 PUSH1 0x0 KECCAK256 SWAP1 JUMPDEST DUP2 SLOAD DUP2 MSTORE SWAP1 PUSH1 0x1 ADD SWAP1 PUSH1 0x20 ADD DUP1 DUP4 GT PUSH2 0x7B3 JUMPI DUP3 SWAP1 SUB PUSH1 0x1F AND DUP3 ADD SWAP2 JUMPDEST POP POP POP POP POP DUP2 MSTORE PUSH1 0x20 ADD PUSH1 0x1 DUP3 ADD DUP1 SLOAD PUSH2 0x7E9 SWAP1 PUSH2 0x1D68 JUMP JUMPDEST DUP1 PUSH1 0x1F ADD PUSH1 0x20 DUP1 SWAP2 DIV MUL PUSH1 0x20 ADD PUSH1 0x40 MLOAD SWAP1 DUP2 ADD PUSH1 0x40 MSTORE DUP1 SWAP3 SWAP2 SWAP1 DUP2 DUP2 MSTORE PUSH1 0x20 ADD DUP3 DUP1 SLOAD PUSH2 0x815 SWAP1 PUSH2 0x1D68 JUMP JUMPDEST DUP1 ISZERO PUSH2 0x862 JUMPI DUP1 PUSH1 0x1F LT PUSH2 0x837 JUMPI PUSH2 0x100 DUP1 DUP4 SLOAD DIV MUL DUP4 MSTORE SWAP2 PUSH1 0x20 ADD SWAP2 PUSH2 0x862 JUMP JUMPDEST DUP3 ADD SWAP2 SWAP1 PUSH1 0x0 MSTORE PUSH1 0x20 PUSH1 0x0 KECCAK256 SWAP1 JUMPDEST DUP2 SLOAD DUP2 MSTORE SWAP1 PUSH1 0x1 ADD SWAP1 PUSH1 0x20 ADD DUP1 DUP4 GT PUSH2 0x845 JUMPI DUP3 SWAP1 SUB PUSH1 0x1F AND DUP3 ADD SWAP2 JUMPDEST POP POP POP POP POP DUP2 MSTORE POP POP DUP2 MSTORE PUSH1 0x20 ADD SWAP1 PUSH1 0x1 ADD SWAP1 PUSH2 0x724 JUMP JUMPDEST POP POP POP POP SWAP1 POP SWAP1 JUMP JUMPDEST PUSH1 0x8 PUSH1 0x20 MSTORE DUP1 PUSH1 0x0 MSTORE PUSH1 0x40 PUSH1 0x0 KECCAK256 PUSH1 0x0 SWAP2 POP SWAP1 POP DUP1 PUSH1 0x0 ADD DUP1 SLOAD PUSH2 0x8A6 SWAP1 PUSH2 0x1D68 JUMP JUMPDEST DUP1 PUSH1 0x1F ADD PUSH1 0x20 DUP1 SWAP2 DIV MUL PUSH1 0x20 ADD PUSH1 0x40 MLOAD SWAP1 DUP2 ADD PUSH1 0x40 MSTORE DUP1 SWAP3 SWAP2 SWAP1 DUP2 DUP2 MSTORE PUSH1 0x20 ADD DUP3 DUP1 SLOAD PUSH2 0x8D2 SWAP1 PUSH2 0x1D68 JUMP JUMPDEST DUP1 ISZERO PUSH2 0x91F JUMPI DUP1 PUSH1 0x1F LT PUSH2 0x8F4 JUMPI PUSH2 0x100 DUP1 DUP4 SLOAD DIV MUL DUP4 MSTORE SWAP2 PUSH1 0x20 ADD SWAP2 PUSH2 0x91F JUMP JUMPDEST DUP3 ADD SWAP2 SWAP1 PUSH1 0x0 MSTORE PUSH1 0x20 PUSH1 0x0 KECCAK256 SWAP1 JUMPDEST DUP2 SLOAD DUP2 MSTORE SWAP1 PUSH1 0x1 ADD SWAP1 PUSH1 0x20 ADD DUP1 DUP4 GT PUSH2 0x902 JUMPI DUP3 SWAP1 SUB PUSH1 0x1F AND DUP3 ADD SWAP2 JUMPDEST POP POP POP POP POP SWAP1 DUP1 PUSH1 0x1 ADD DUP1 SLOAD PUSH2 0x934 SWAP1 PUSH2 0x1D68 JUMP JUMPDEST DUP1 PUSH1 0x1F ADD PUSH1 0x20 DUP1 SWAP2 DIV MUL PUSH1 0x20 ADD PUSH1 0x40 MLOAD SWAP1 DUP2 ADD PUSH1 0x40 MSTORE DUP1 SWAP3 SWAP2 SWAP1 DUP2 DUP2 MSTORE PUSH1 0x20 ADD DUP3 DUP1 SLOAD PUSH2 0x960 SWAP1 PUSH2 0x1D68 JUMP JUMPDEST DUP1 ISZERO PUSH2 0x9AD JUMPI DUP1 PUSH1 0x1F LT PUSH2 0x982 JUMPI PUSH2 0x100 DUP1 DUP4 SLOAD DIV MUL DUP4 MSTORE SWAP2 PUSH1 0x20 ADD SWAP2 PUSH2 0x9AD JUMP JUMPDEST DUP3 ADD SWAP2 SWAP1 PUSH1 0x0 MSTORE PUSH1 0x20 PUSH1 0x0 KECCAK256 SWAP1 JUMPDEST DUP2 SLOAD DUP2 MSTORE SWAP1 PUSH1 0x1 ADD SWAP1 PUSH1 0x20 ADD DUP1 DUP4 GT PUSH2 0x990 JUMPI DUP3 SWAP1 SUB PUSH1 0x1F AND DUP3 ADD SWAP2 JUMPDEST POP POP POP POP POP SWAP1 POP DUP3 JUMP JUMPDEST PUSH1 0x60 PUSH1 0x0 DUP1 SLOAD DUP1 PUSH1 0x20 MUL PUSH1 0x20 ADD PUSH1 0x40 MLOAD SWAP1 DUP2 ADD PUSH1 0x40 MSTORE DUP1 SWAP3 SWAP2 SWAP1 DUP2 DUP2 MSTORE PUSH1 0x20 ADD PUSH1 0x0 SWAP1 JUMPDEST DUP3 DUP3 LT ISZERO PUSH2 0xBB1 JUMPI DUP4 DUP3 SWAP1 PUSH1 0x0 MSTORE PUSH1 0x20 PUSH1 0x0 KECCAK256 SWAP1 PUSH1 0x5 MUL ADD PUSH1 0x40 MLOAD DUP1 PUSH1 0xA0 ADD PUSH1 0x40 MSTORE SWAP1 DUP2 PUSH1 0x0 DUP3 ADD SLOAD DUP2 MSTORE PUSH1 0x20 ADD PUSH1 0x1 DUP3 ADD DUP1 SLOAD PUSH2 0xA18 SWAP1 PUSH2 0x1D68 JUMP JUMPDEST DUP1 PUSH1 0x1F ADD PUSH1 0x20 DUP1 SWAP2 DIV MUL PUSH1 0x20 ADD PUSH1 0x40 MLOAD SWAP1 DUP2 ADD PUSH1 0x40 MSTORE DUP1 SWAP3 SWAP2 SWAP1 DUP2 DUP2 MSTORE PUSH1 0x20 ADD DUP3 DUP1 SLOAD PUSH2 0xA44 SWAP1 PUSH2 0x1D68 JUMP JUMPDEST DUP1 ISZERO PUSH2 0xA91 JUMPI DUP1 PUSH1 0x1F LT PUSH2 0xA66 JUMPI PUSH2 0x100 DUP1 DUP4 SLOAD DIV MUL DUP4 MSTORE SWAP2 PUSH1 0x20 ADD SWAP2 PUSH2 0xA91 JUMP JUMPDEST DUP3 ADD SWAP2 SWAP1 PUSH1 0x0 MSTORE PUSH1 0x20 PUSH1 0x0 KECCAK256 SWAP1 JUMPDEST DUP2 SLOAD DUP2 MSTORE SWAP1 PUSH1 0x1 ADD SWAP1 PUSH1 0x20 ADD DUP1 DUP4 GT PUSH2 0xA74 JUMPI DUP3 SWAP1 SUB PUSH1 0x1F AND DUP3 ADD SWAP2 JUMPDEST POP POP POP POP POP DUP2 MSTORE PUSH1 0x20 ADD PUSH1 0x2 DUP3 ADD DUP1 SLOAD DUP1 PUSH1 0x20 MUL PUSH1 0x20 ADD PUSH1 0x40 MLOAD SWAP1 DUP2 ADD PUSH1 0x40 MSTORE DUP1 SWAP3 SWAP2 SWAP1 DUP2 DUP2 MSTORE PUSH1 0x20 ADD DUP3 DUP1 SLOAD DUP1 ISZERO PUSH2 0xAE9 JUMPI PUSH1 0x20 MUL DUP3 ADD SWAP2 SWAP1 PUSH1 0x0 MSTORE PUSH1 0x20 PUSH1 0x0 KECCAK256 SWAP1 JUMPDEST DUP2 SLOAD DUP2 MSTORE PUSH1 0x20 ADD SWAP1 PUSH1 0x1 ADD SWAP1 DUP1 DUP4 GT PUSH2 0xAD5 JUMPI JUMPDEST POP POP POP POP POP DUP2 MSTORE PUSH1 0x20 ADD PUSH1 0x3 DUP3 ADD DUP1 SLOAD DUP1 PUSH1 0x20 MUL PUSH1 0x20 ADD PUSH1 0x40 MLOAD SWAP1 DUP2 ADD PUSH1 0x40 MSTORE DUP1 SWAP3 SWAP2 SWAP1 DUP2 DUP2 MSTORE PUSH1 0x20 ADD DUP3 DUP1 SLOAD DUP1 ISZERO PUSH2 0xB41 JUMPI PUSH1 0x20 MUL DUP3 ADD SWAP2 SWAP1 PUSH1 0x0 MSTORE PUSH1 0x20 PUSH1 0x0 KECCAK256 SWAP1 JUMPDEST DUP2 SLOAD DUP2 MSTORE PUSH1 0x20 ADD SWAP1 PUSH1 0x1 ADD SWAP1 DUP1 DUP4 GT PUSH2 0xB2D JUMPI JUMPDEST POP POP POP POP POP DUP2 MSTORE PUSH1 0x20 ADD PUSH1 0x4 DUP3 ADD DUP1 SLOAD DUP1 PUSH1 0x20 MUL PUSH1 0x20 ADD PUSH1 0x40 MLOAD SWAP1 DUP2 ADD PUSH1 0x40 MSTORE DUP1 SWAP3 SWAP2 SWAP1 DUP2 DUP2 MSTORE PUSH1 0x20 ADD DUP3 DUP1 SLOAD DUP1 ISZERO PUSH2 0xB99 JUMPI PUSH1 0x20 MUL DUP3 ADD SWAP2 SWAP1 PUSH1 0x0 MSTORE PUSH1 0x20 PUSH1 0x0 KECCAK256 SWAP1 JUMPDEST DUP2 SLOAD DUP2 MSTORE PUSH1 0x20 ADD SWAP1 PUSH1 0x1 ADD SWAP1 DUP1 DUP4 GT PUSH2 0xB85 JUMPI JUMPDEST POP POP POP POP POP DUP2 MSTORE POP POP DUP2 MSTORE PUSH1 0x20 ADD SWAP1 PUSH1 0x1 ADD SWAP1 PUSH2 0x9DB JUMP JUMPDEST POP POP POP POP SWAP1 POP SWAP1 JUMP JUMPDEST PUSH1 0x0 PUSH1 0x40 MLOAD DUP1 PUSH1 0x40 ADD PUSH1 0x40 MSTORE DUP1 DUP6 DUP2 MSTORE PUSH1 0x20 ADD DUP5 DUP2 MSTORE POP SWAP1 POP PUSH1 0x3 DUP2 SWAP1 DUP1 PUSH1 0x1 DUP2 SLOAD ADD DUP1 DUP3 SSTORE DUP1 SWAP2 POP POP PUSH1 0x1 SWAP1 SUB SWAP1 PUSH1 0x0 MSTORE PUSH1 0x20 PUSH1 0x0 KECCAK256 SWAP1 PUSH1 0x2 MUL ADD PUSH1 0x0 SWAP1 SWAP2 SWAP1 SWAP2 SWAP1 SWAP2 POP PUSH1 0x0 DUP3 ADD MLOAD DUP2 PUSH1 0x0 ADD SWAP1 DUP2 PUSH2 0xC14 SWAP2 SWAP1 PUSH2 0x1F45 JUMP JUMPDEST POP PUSH1 0x20 DUP3 ADD MLOAD DUP2 PUSH1 0x1 ADD SWAP1 DUP2 PUSH2 0xC2A SWAP2 SWAP1 PUSH2 0x1F45 JUMP JUMPDEST POP POP POP DUP1 PUSH1 0x9 PUSH1 0x0 DUP5 DUP2 MSTORE PUSH1 0x20 ADD SWAP1 DUP2 MSTORE PUSH1 0x20 ADD PUSH1 0x0 KECCAK256 PUSH1 0x0 DUP3 ADD MLOAD DUP2 PUSH1 0x0 ADD SWAP1 DUP2 PUSH2 0xC56 SWAP2 SWAP1 PUSH2 0x1F45 JUMP JUMPDEST POP PUSH1 0x20 DUP3 ADD MLOAD DUP2 PUSH1 0x1 ADD SWAP1 DUP2 PUSH2 0xC6C SWAP2 SWAP1 PUSH2 0x1F45 JUMP JUMPDEST POP SWAP1 POP POP POP POP POP POP JUMP JUMPDEST PUSH1 0x7 PUSH1 0x20 MSTORE DUP1 PUSH1 0x0 MSTORE PUSH1 0x40 PUSH1 0x0 KECCAK256 PUSH1 0x0 SWAP2 POP SWAP1 POP DUP1 PUSH1 0x0 ADD DUP1 SLOAD PUSH2 0xC99 SWAP1 PUSH2 0x1D68 JUMP JUMPDEST DUP1 PUSH1 0x1F ADD PUSH1 0x20 DUP1 SWAP2 DIV MUL PUSH1 0x20 ADD PUSH1 0x40 MLOAD SWAP1 DUP2 ADD PUSH1 0x40 MSTORE DUP1 SWAP3 SWAP2 SWAP1 DUP2 DUP2 MSTORE PUSH1 0x20 ADD DUP3 DUP1 SLOAD PUSH2 0xCC5 SWAP1 PUSH2 0x1D68 JUMP JUMPDEST DUP1 ISZERO PUSH2 0xD12 JUMPI DUP1 PUSH1 0x1F LT PUSH2 0xCE7 JUMPI PUSH2 0x100 DUP1 DUP4 SLOAD DIV MUL DUP4 MSTORE SWAP2 PUSH1 0x20 ADD SWAP2 PUSH2 0xD12 JUMP JUMPDEST DUP3 ADD SWAP2 SWAP1 PUSH1 0x0 MSTORE PUSH1 0x20 PUSH1 0x0 KECCAK256 SWAP1 JUMPDEST DUP2 SLOAD DUP2 MSTORE SWAP1 PUSH1 0x1 ADD SWAP1 PUSH1 0x20 ADD DUP1 DUP4 GT PUSH2 0xCF5 JUMPI DUP3 SWAP1 SUB PUSH1 0x1F AND DUP3 ADD SWAP2 JUMPDEST POP POP POP POP POP SWAP1 DUP1 PUSH1 0x1 ADD DUP1 SLOAD PUSH2 0xD27 SWAP1 PUSH2 0x1D68 JUMP JUMPDEST DUP1 PUSH1 0x1F ADD PUSH1 0x20 DUP1 SWAP2 DIV MUL PUSH1 0x20 ADD PUSH1 0x40 MLOAD SWAP1 DUP2 ADD PUSH1 0x40 MSTORE DUP1 SWAP3 SWAP2 SWAP1 DUP2 DUP2 MSTORE PUSH1 0x20 ADD DUP3 DUP1 SLOAD PUSH2 0xD53 SWAP1 PUSH2 0x1D68 JUMP JUMPDEST DUP1 ISZERO PUSH2 0xDA0 JUMPI DUP1 PUSH1 0x1F LT PUSH2 0xD75 JUMPI PUSH2 0x100 DUP1 DUP4 SLOAD DIV MUL DUP4 MSTORE SWAP2 PUSH1 0x20 ADD SWAP2 PUSH2 0xDA0 JUMP JUMPDEST DUP3 ADD SWAP2 SWAP1 PUSH1 0x0 MSTORE PUSH1 0x20 PUSH1 0x0 KECCAK256 SWAP1 JUMPDEST DUP2 SLOAD DUP2 MSTORE SWAP1 PUSH1 0x1 ADD SWAP1 PUSH1 0x20 ADD DUP1 DUP4 GT PUSH2 0xD83 JUMPI DUP3 SWAP1 SUB PUSH1 0x1F AND DUP3 ADD SWAP2 JUMPDEST POP POP POP POP POP SWAP1 POP DUP3 JUMP JUMPDEST PUSH1 0x60 PUSH1 0x3 DUP1 SLOAD DUP1 PUSH1 0x20 MUL PUSH1 0x20 ADD PUSH1 0x40 MLOAD SWAP1 DUP2 ADD PUSH1 0x40 MSTORE DUP1 SWAP3 SWAP2 SWAP1 DUP2 DUP2 MSTORE PUSH1 0x20 ADD PUSH1 0x0 SWAP1 JUMPDEST DUP3 DUP3 LT ISZERO PUSH2 0xF24 JUMPI DUP4 DUP3 SWAP1 PUSH1 0x0 MSTORE PUSH1 0x20 PUSH1 0x0 KECCAK256 SWAP1 PUSH1 0x2 MUL ADD PUSH1 0x40 MLOAD DUP1 PUSH1 0x40 ADD PUSH1 0x40 MSTORE SWAP1 DUP2 PUSH1 0x0 DUP3 ADD DUP1 SLOAD PUSH2 0xE01 SWAP1 PUSH2 0x1D68 JUMP JUMPDEST DUP1 PUSH1 0x1F ADD PUSH1 0x20 DUP1 SWAP2 DIV MUL PUSH1 0x20 ADD PUSH1 0x40 MLOAD SWAP1 DUP2 ADD PUSH1 0x40 MSTORE DUP1 SWAP3 SWAP2 SWAP1 DUP2 DUP2 MSTORE PUSH1 0x20 ADD DUP3 DUP1 SLOAD PUSH2 0xE2D SWAP1 PUSH2 0x1D68 JUMP JUMPDEST DUP1 ISZERO PUSH2 0xE7A JUMPI DUP1 PUSH1 0x1F LT PUSH2 0xE4F JUMPI PUSH2 0x100 DUP1 DUP4 SLOAD DIV MUL DUP4 MSTORE SWAP2 PUSH1 0x20 ADD SWAP2 PUSH2 0xE7A JUMP JUMPDEST DUP3 ADD SWAP2 SWAP1 PUSH1 0x0 MSTORE PUSH1 0x20 PUSH1 0x0 KECCAK256 SWAP1 JUMPDEST DUP2 SLOAD DUP2 MSTORE SWAP1 PUSH1 0x1 ADD SWAP1 PUSH1 0x20 ADD DUP1 DUP4 GT PUSH2 0xE5D JUMPI DUP3 SWAP1 SUB PUSH1 0x1F AND DUP3 ADD SWAP2 JUMPDEST POP POP POP POP POP DUP2 MSTORE PUSH1 0x20 ADD PUSH1 0x1 DUP3 ADD DUP1 SLOAD PUSH2 0xE93 SWAP1 PUSH2 0x1D68 JUMP JUMPDEST DUP1 PUSH1 0x1F ADD PUSH1 0x20 DUP1 SWAP2 DIV MUL PUSH1 0x20 ADD PUSH1 0x40 MLOAD SWAP1 DUP2 ADD PUSH1 0x40 MSTORE DUP1 SWAP3 SWAP2 SWAP1 DUP2 DUP2 MSTORE PUSH1 0x20 ADD DUP3 DUP1 SLOAD PUSH2 0xEBF SWAP1 PUSH2 0x1D68 JUMP JUMPDEST DUP1 ISZERO PUSH2 0xF0C JUMPI DUP1 PUSH1 0x1F LT PUSH2 0xEE1 JUMPI PUSH2 0x100 DUP1 DUP4 SLOAD DIV MUL DUP4 MSTORE SWAP2 PUSH1 0x20 ADD SWAP2 PUSH2 0xF0C JUMP JUMPDEST DUP3 ADD SWAP2 SWAP1 PUSH1 0x0 MSTORE PUSH1 0x20 PUSH1 0x0 KECCAK256 SWAP1 JUMPDEST DUP2 SLOAD DUP2 MSTORE SWAP1 PUSH1 0x1 ADD SWAP1 PUSH1 0x20 ADD DUP1 DUP4 GT PUSH2 0xEEF JUMPI DUP3 SWAP1 SUB PUSH1 0x1F AND DUP3 ADD SWAP2 JUMPDEST POP POP POP POP POP DUP2 MSTORE POP POP DUP2 MSTORE PUSH1 0x20 ADD SWAP1 PUSH1 0x1 ADD SWAP1 PUSH2 0xDCE JUMP JUMPDEST POP POP POP POP SWAP1 POP SWAP1 JUMP JUMPDEST PUSH1 0x0 DUP6 SWAP1 POP PUSH1 0x0 DUP6 GT PUSH2 0xF75 JUMPI PUSH1 0x40 MLOAD PUSH32 0x8C379A000000000000000000000000000000000000000000000000000000000 DUP2 MSTORE PUSH1 0x4 ADD PUSH2 0xF6C SWAP1 PUSH2 0x2063 JUMP JUMPDEST PUSH1 0x40 MLOAD DUP1 SWAP2 SUB SWAP1 REVERT JUMPDEST PUSH1 0x2 DUP2 MLOAD GT PUSH2 0xFB9 JUMPI PUSH1 0x40 MLOAD PUSH32 0x8C379A000000000000000000000000000000000000000000000000000000000 DUP2 MSTORE PUSH1 0x4 ADD PUSH2 0xFB0 SWAP1 PUSH2 0x20F5 JUMP JUMPDEST PUSH1 0x40 MLOAD DUP1 SWAP2 SUB SWAP1 REVERT JUMPDEST PUSH1 0x0 PUSH1 0x40 MLOAD DUP1 PUSH1 0xA0 ADD PUSH1 0x40 MSTORE DUP1 DUP8 DUP2 MSTORE PUSH1 0x20 ADD DUP9 DUP2 MSTORE PUSH1 0x20 ADD DUP7 DUP2 MSTORE PUSH1 0x20 ADD DUP6 DUP2 MSTORE PUSH1 0x20 ADD DUP5 DUP2 MSTORE POP SWAP1 DUP1 PUSH1 0x1 DUP2 SLOAD ADD DUP1 DUP3 SSTORE DUP1 SWAP2 POP POP PUSH1 0x1 SWAP1 SUB SWAP1 PUSH1 0x0 MSTORE PUSH1 0x20 PUSH1 0x0 KECCAK256 SWAP1 PUSH1 0x5 MUL ADD PUSH1 0x0 SWAP1 SWAP2 SWAP1 SWAP2 SWAP1 SWAP2 POP PUSH1 0x0 DUP3 ADD MLOAD DUP2 PUSH1 0x0 ADD SSTORE PUSH1 0x20 DUP3 ADD MLOAD DUP2 PUSH1 0x1 ADD SWAP1 DUP2 PUSH2 0x102A SWAP2 SWAP1 PUSH2 0x1F45 JUMP JUMPDEST POP PUSH1 0x40 DUP3 ADD MLOAD DUP2 PUSH1 0x2 ADD SWAP1 DUP1 MLOAD SWAP1 PUSH1 0x20 ADD SWAP1 PUSH2 0x1047 SWAP3 SWAP2 SWAP1 PUSH2 0x119B JUMP JUMPDEST POP PUSH1 0x60 DUP3 ADD MLOAD DUP2 PUSH1 0x3 ADD SWAP1 DUP1 MLOAD SWAP1 PUSH1 0x20 ADD SWAP1 PUSH2 0x1064 SWAP3 SWAP2 SWAP1 PUSH2 0x119B JUMP JUMPDEST POP PUSH1 0x80 DUP3 ADD MLOAD DUP2 PUSH1 0x4 ADD SWAP1 DUP1 MLOAD SWAP1 PUSH1 0x20 ADD SWAP1 PUSH2 0x1081 SWAP3 SWAP2 SWAP1 PUSH2 0x119B JUMP JUMPDEST POP POP POP CALLER PUSH1 0x4 PUSH1 0x0 DUP8 DUP2 MSTORE PUSH1 0x20 ADD SWAP1 DUP2 MSTORE PUSH1 0x20 ADD PUSH1 0x0 KECCAK256 PUSH1 0x0 PUSH2 0x100 EXP DUP2 SLOAD DUP2 PUSH20 0xFFFFFFFFFFFFFFFFFFFFFFFFFFFFFFFFFFFFFFFF MUL NOT AND SWAP1 DUP4 PUSH20 0xFFFFFFFFFFFFFFFFFFFFFFFFFFFFFFFFFFFFFFFF AND MUL OR SWAP1 SSTORE POP PUSH1 0x5 PUSH1 0x0 CALLER PUSH20 0xFFFFFFFFFFFFFFFFFFFFFFFFFFFFFFFFFFFFFFFF AND PUSH20 0xFFFFFFFFFFFFFFFFFFFFFFFFFFFFFFFFFFFFFFFF AND DUP2 MSTORE PUSH1 0x20 ADD SWAP1 DUP2 MSTORE PUSH1 0x20 ADD PUSH1 0x0 KECCAK256 PUSH1 0x0 DUP2 SLOAD DUP1 SWAP3 SWAP2 SWAP1 PUSH2 0x1126 SWAP1 PUSH2 0x2144 JUMP JUMPDEST SWAP2 SWAP1 POP SSTORE POP PUSH32 0xE5A4C13681FC1EC969A5D1E2A8F13730BCA81A4041367C6493477D52103B1CE2 CALLER PUSH1 0x40 MLOAD PUSH2 0x115A SWAP2 SWAP1 PUSH2 0x21FE JUMP JUMPDEST PUSH1 0x40 MLOAD DUP1 SWAP2 SUB SWAP1 LOG1 POP POP POP POP POP POP JUMP JUMPDEST PUSH1 0x0 DUP1 PUSH1 0x0 PUSH1 0x1 SWAP1 POP PUSH1 0x0 PUSH1 0x2 SWAP1 POP DUP1 DUP3 PUSH2 0x1185 SWAP2 SWAP1 PUSH2 0x222C JUMP JUMPDEST SWAP4 POP DUP1 DUP3 PUSH2 0x1193 SWAP2 SWAP1 PUSH2 0x226E JUMP JUMPDEST SWAP3 POP POP POP SWAP1 SWAP2 JUMP JUMPDEST DUP3 DUP1 SLOAD DUP3 DUP3 SSTORE SWAP1 PUSH1 0x0 MSTORE PUSH1 0x20 PUSH1 0x0 KECCAK256 SWAP1 DUP2 ADD SWAP3 DUP3 ISZERO PUSH2 0x11D7 JUMPI SWAP2 PUSH1 0x20 MUL DUP3 ADD JUMPDEST DUP3 DUP2 GT ISZERO PUSH2 0x11D6 JUMPI DUP3 MLOAD DUP3 SSTORE SWAP2 PUSH1 0x20 ADD SWAP2 SWAP1 PUSH1 0x1 ADD SWAP1 PUSH2 0x11BB JUMP JUMPDEST JUMPDEST POP SWAP1 POP PUSH2 0x11E4 SWAP2 SWAP1 PUSH2 0x11E8 JUMP JUMPDEST POP SWAP1 JUMP JUMPDEST JUMPDEST DUP1 DUP3 GT ISZERO PUSH2 0x1201 JUMPI PUSH1 0x0 DUP2 PUSH1 0x0 SWAP1 SSTORE POP PUSH1 0x1 ADD PUSH2 0x11E9 JUMP JUMPDEST POP SWAP1 JUMP JUMPDEST PUSH1 0x0 DUP2 MLOAD SWAP1 POP SWAP2 SWAP1 POP JUMP JUMPDEST PUSH1 0x0 DUP3 DUP3 MSTORE PUSH1 0x20 DUP3 ADD SWAP1 POP SWAP3 SWAP2 POP POP JUMP JUMPDEST PUSH1 0x0 DUP2 SWAP1 POP PUSH1 0x20 DUP3 ADD SWAP1 POP SWAP2 SWAP1 POP JUMP JUMPDEST PUSH1 0x0 DUP2 MLOAD SWAP1 POP SWAP2 SWAP1 POP JUMP JUMPDEST PUSH1 0x0 DUP3 DUP3 MSTORE PUSH1 0x20 DUP3 ADD SWAP1 POP SWAP3 SWAP2 POP POP JUMP JUMPDEST PUSH1 0x0 JUMPDEST DUP4 DUP2 LT ISZERO PUSH2 0x126B JUMPI DUP1 DUP3 ADD MLOAD DUP2 DUP5 ADD MSTORE PUSH1 0x20 DUP2 ADD SWAP1 POP PUSH2 0x1250 JUMP JUMPDEST PUSH1 0x0 DUP5 DUP5 ADD MSTORE POP POP POP POP JUMP JUMPDEST PUSH1 0x0 PUSH1 0x1F NOT PUSH1 0x1F DUP4 ADD AND SWAP1 POP SWAP2 SWAP1 POP JUMP JUMPDEST PUSH1 0x0 PUSH2 0x1293 DUP3 PUSH2 0x1231 JUMP JUMPDEST PUSH2 0x129D DUP2 DUP6 PUSH2 0x123C JUMP JUMPDEST SWAP4 POP PUSH2 0x12AD DUP2 DUP6 PUSH1 0x20 DUP7 ADD PUSH2 0x124D JUMP JUMPDEST PUSH2 0x12B6 DUP2 PUSH2 0x1277 JUMP JUMPDEST DUP5 ADD SWAP2 POP POP SWAP3 SWAP2 POP POP JUMP JUMPDEST PUSH1 0x0 PUSH1 0x40 DUP4 ADD PUSH1 0x0 DUP4 ADD MLOAD DUP5 DUP3 SUB PUSH1 0x0 DUP7 ADD MSTORE PUSH2 0x12DE DUP3 DUP3 PUSH2 0x1288 JUMP JUMPDEST SWAP2 POP POP PUSH1 0x20 DUP4 ADD MLOAD DUP5 DUP3 SUB PUSH1 0x20 DUP7 ADD MSTORE PUSH2 0x12F8 DUP3 DUP3 PUSH2 0x1288 JUMP JUMPDEST SWAP2 POP POP DUP1 SWAP2 POP POP SWAP3 SWAP2 POP POP JUMP JUMPDEST PUSH1 0x0 PUSH2 0x1311 DUP4 DUP4 PUSH2 0x12C1 JUMP JUMPDEST SWAP1 POP SWAP3 SWAP2 POP POP JUMP JUMPDEST PUSH1 0x0 PUSH1 0x20 DUP3 ADD SWAP1 POP SWAP2 SWAP1 POP JUMP JUMPDEST PUSH1 0x0 PUSH2 0x1331 DUP3 PUSH2 0x1205 JUMP JUMPDEST PUSH2 0x133B DUP2 DUP6 PUSH2 0x1210 JUMP JUMPDEST SWAP4 POP DUP4 PUSH1 0x20 DUP3 MUL DUP6 ADD PUSH2 0x134D DUP6 PUSH2 0x1221 JUMP JUMPDEST DUP1 PUSH1 0x0 JUMPDEST DUP6 DUP2 LT ISZERO PUSH2 0x1389 JUMPI DUP5 DUP5 SUB DUP10 MSTORE DUP2 MLOAD PUSH2 0x136A DUP6 DUP3 PUSH2 0x1305 JUMP JUMPDEST SWAP5 POP PUSH2 0x1375 DUP4 PUSH2 0x1319 JUMP JUMPDEST SWAP3 POP PUSH1 0x20 DUP11 ADD SWAP10 POP POP PUSH1 0x1 DUP2 ADD SWAP1 POP PUSH2 0x1351 JUMP JUMPDEST POP DUP3 SWAP8 POP DUP8 SWAP6 POP POP POP POP POP POP SWAP3 SWAP2 POP POP JUMP JUMPDEST PUSH1 0x0 PUSH1 0x20 DUP3 ADD SWAP1 POP DUP2 DUP2 SUB PUSH1 0x0 DUP4 ADD MSTORE PUSH2 0x13B5 DUP2 DUP5 PUSH2 0x1326 JUMP JUMPDEST SWAP1 POP SWAP3 SWAP2 POP POP JUMP JUMPDEST PUSH1 0x0 PUSH1 0x40 MLOAD SWAP1 POP SWAP1 JUMP JUMPDEST PUSH1 0x0 DUP1 REVERT JUMPDEST PUSH1 0x0 DUP1 REVERT JUMPDEST PUSH1 0x0 DUP2 SWAP1 POP SWAP2 SWAP1 POP JUMP JUMPDEST PUSH2 0x13E4 DUP2 PUSH2 0x13D1 JUMP JUMPDEST DUP2 EQ PUSH2 0x13EF JUMPI PUSH1 0x0 DUP1 REVERT JUMPDEST POP JUMP JUMPDEST PUSH1 0x0 DUP2 CALLDATALOAD SWAP1 POP PUSH2 0x1401 DUP2 PUSH2 0x13DB JUMP JUMPDEST SWAP3 SWAP2 POP POP JUMP JUMPDEST PUSH1 0x0 PUSH1 0x20 DUP3 DUP5 SUB SLT ISZERO PUSH2 0x141D JUMPI PUSH2 0x141C PUSH2 0x13C7 JUMP JUMPDEST JUMPDEST PUSH1 0x0 PUSH2 0x142B DUP5 DUP3 DUP6 ADD PUSH2 0x13F2 JUMP JUMPDEST SWAP2 POP POP SWAP3 SWAP2 POP POP JUMP JUMPDEST PUSH1 0x0 DUP3 DUP3 MSTORE PUSH1 0x20 DUP3 ADD SWAP1 POP SWAP3 SWAP2 POP POP JUMP JUMPDEST PUSH1 0x0 PUSH2 0x1450 DUP3 PUSH2 0x1231 JUMP JUMPDEST PUSH2 0x145A DUP2 DUP6 PUSH2 0x1434 JUMP JUMPDEST SWAP4 POP PUSH2 0x146A DUP2 DUP6 PUSH1 0x20 DUP7 ADD PUSH2 0x124D JUMP JUMPDEST PUSH2 0x1473 DUP2 PUSH2 0x1277 JUMP JUMPDEST DUP5 ADD SWAP2 POP POP SWAP3 SWAP2 POP POP JUMP JUMPDEST PUSH1 0x0 PUSH1 0x40 DUP3 ADD SWAP1 POP DUP2 DUP2 SUB PUSH1 0x0 DUP4 ADD MSTORE PUSH2 0x1498 DUP2 DUP6 PUSH2 0x1445 JUMP JUMPDEST SWAP1 POP DUP2 DUP2 SUB PUSH1 0x20 DUP4 ADD MSTORE PUSH2 0x14AC DUP2 DUP5 PUSH2 0x1445 JUMP JUMPDEST SWAP1 POP SWAP4 SWAP3 POP POP POP JUMP JUMPDEST PUSH1 0x0 DUP1 REVERT JUMPDEST PUSH1 0x0 DUP1 REVERT JUMPDEST PUSH32 0x4E487B7100000000000000000000000000000000000000000000000000000000 PUSH1 0x0 MSTORE PUSH1 0x41 PUSH1 0x4 MSTORE PUSH1 0x24 PUSH1 0x0 REVERT JUMPDEST PUSH2 0x14F7 DUP3 PUSH2 0x1277 JUMP JUMPDEST DUP2 ADD DUP2 DUP2 LT PUSH8 0xFFFFFFFFFFFFFFFF DUP3 GT OR ISZERO PUSH2 0x1516 JUMPI PUSH2 0x1515 PUSH2 0x14BF JUMP JUMPDEST JUMPDEST DUP1 PUSH1 0x40 MSTORE POP POP POP JUMP JUMPDEST PUSH1 0x0 PUSH2 0x1529 PUSH2 0x13BD JUMP JUMPDEST SWAP1 POP PUSH2 0x1535 DUP3 DUP3 PUSH2 0x14EE JUMP JUMPDEST SWAP2 SWAP1 POP JUMP JUMPDEST PUSH1 0x0 PUSH8 0xFFFFFFFFFFFFFFFF DUP3 GT ISZERO PUSH2 0x1555 JUMPI PUSH2 0x1554 PUSH2 0x14BF JUMP JUMPDEST JUMPDEST PUSH2 0x155E DUP3 PUSH2 0x1277 JUMP JUMPDEST SWAP1 POP PUSH1 0x20 DUP2 ADD SWAP1 POP SWAP2 SWAP1 POP JUMP JUMPDEST DUP3 DUP2 DUP4 CALLDATACOPY PUSH1 0x0 DUP4 DUP4 ADD MSTORE POP POP POP JUMP JUMPDEST PUSH1 0x0 PUSH2 0x158D PUSH2 0x1588 DUP5 PUSH2 0x153A JUMP JUMPDEST PUSH2 0x151F JUMP JUMPDEST SWAP1 POP DUP3 DUP2 MSTORE PUSH1 0x20 DUP2 ADD DUP5 DUP5 DUP5 ADD GT ISZERO PUSH2 0x15A9 JUMPI PUSH2 0x15A8 PUSH2 0x14BA JUMP JUMPDEST JUMPDEST PUSH2 0x15B4 DUP5 DUP3 DUP6 PUSH2 0x156B JUMP JUMPDEST POP SWAP4 SWAP3 POP POP POP JUMP JUMPDEST PUSH1 0x0 DUP3 PUSH1 0x1F DUP4 ADD SLT PUSH2 0x15D1 JUMPI PUSH2 0x15D0 PUSH2 0x14B5 JUMP JUMPDEST JUMPDEST DUP2 CALLDATALOAD PUSH2 0x15E1 DUP5 DUP3 PUSH1 0x20 DUP7 ADD PUSH2 0x157A JUMP JUMPDEST SWAP2 POP POP SWAP3 SWAP2 POP POP JUMP JUMPDEST PUSH1 0x0 DUP1 PUSH1 0x0 PUSH1 0x60 DUP5 DUP7 SUB SLT ISZERO PUSH2 0x1603 JUMPI PUSH2 0x1602 PUSH2 0x13C7 JUMP JUMPDEST JUMPDEST PUSH1 0x0 DUP5 ADD CALLDATALOAD PUSH8 0xFFFFFFFFFFFFFFFF DUP2 GT ISZERO PUSH2 0x1621 JUMPI PUSH2 0x1620 PUSH2 0x13CC JUMP JUMPDEST JUMPDEST PUSH2 0x162D DUP7 DUP3 DUP8 ADD PUSH2 0x15BC JUMP JUMPDEST SWAP4 POP POP PUSH1 0x20 DUP5 ADD CALLDATALOAD PUSH8 0xFFFFFFFFFFFFFFFF DUP2 GT ISZERO PUSH2 0x164E JUMPI PUSH2 0x164D PUSH2 0x13CC JUMP JUMPDEST JUMPDEST PUSH2 0x165A DUP7 DUP3 DUP8 ADD PUSH2 0x15BC JUMP JUMPDEST SWAP3 POP POP PUSH1 0x40 PUSH2 0x166B DUP7 DUP3 DUP8 ADD PUSH2 0x13F2 JUMP JUMPDEST SWAP2 POP POP SWAP3 POP SWAP3 POP SWAP3 JUMP JUMPDEST PUSH1 0x0 PUSH20 0xFFFFFFFFFFFFFFFFFFFFFFFFFFFFFFFFFFFFFFFF DUP3 AND SWAP1 POP SWAP2 SWAP1 POP JUMP JUMPDEST PUSH1 0x0 PUSH2 0x16A0 DUP3 PUSH2 0x1675 JUMP JUMPDEST SWAP1 POP SWAP2 SWAP1 POP JUMP JUMPDEST PUSH2 0x16B0 DUP2 PUSH2 0x1695 JUMP JUMPDEST DUP3 MSTORE POP POP JUMP JUMPDEST PUSH1 0x0 PUSH1 0x20 DUP3 ADD SWAP1 POP PUSH2 0x16CB PUSH1 0x0 DUP4 ADD DUP5 PUSH2 0x16A7 JUMP JUMPDEST SWAP3 SWAP2 POP POP JUMP JUMPDEST PUSH1 0x0 DUP2 MLOAD SWAP1 POP SWAP2 SWAP1 POP JUMP JUMPDEST PUSH1 0x0 DUP3 DUP3 MSTORE PUSH1 0x20 DUP3 ADD SWAP1 POP SWAP3 SWAP2 POP POP JUMP JUMPDEST PUSH1 0x0 DUP2 SWAP1 POP PUSH1 0x20 DUP3 ADD SWAP1 POP SWAP2 SWAP1 POP JUMP JUMPDEST PUSH1 0x0 PUSH1 0x40 DUP4 ADD PUSH1 0x0 DUP4 ADD MLOAD DUP5 DUP3 SUB PUSH1 0x0 DUP7 ADD MSTORE PUSH2 0x171A DUP3 DUP3 PUSH2 0x1288 JUMP JUMPDEST SWAP2 POP POP PUSH1 0x20 DUP4 ADD MLOAD DUP5 DUP3 SUB PUSH1 0x20 DUP7 ADD MSTORE PUSH2 0x1734 DUP3 DUP3 PUSH2 0x1288 JUMP JUMPDEST SWAP2 POP POP DUP1 SWAP2 POP POP SWAP3 SWAP2 POP POP JUMP JUMPDEST PUSH1 0x0 PUSH2 0x174D DUP4 DUP4 PUSH2 0x16FD JUMP JUMPDEST SWAP1 POP SWAP3 SWAP2 POP POP JUMP JUMPDEST PUSH1 0x0 PUSH1 0x20 DUP3 ADD SWAP1 POP SWAP2 SWAP1 POP JUMP JUMPDEST PUSH1 0x0 PUSH2 0x176D DUP3 PUSH2 0x16D1 JUMP JUMPDEST PUSH2 0x1777 DUP2 DUP6 PUSH2 0x16DC JUMP JUMPDEST SWAP4 POP DUP4 PUSH1 0x20 DUP3 MUL DUP6 ADD PUSH2 0x1789 DUP6 PUSH2 0x16ED JUMP JUMPDEST DUP1 PUSH1 0x0 JUMPDEST DUP6 DUP2 LT ISZERO PUSH2 0x17C5 JUMPI DUP5 DUP5 SUB DUP10 MSTORE DUP2 MLOAD PUSH2 0x17A6 DUP6 DUP3 PUSH2 0x1741 JUMP JUMPDEST SWAP5 POP PUSH2 0x17B1 DUP4 PUSH2 0x1755 JUMP JUMPDEST SWAP3 POP PUSH1 0x20 DUP11 ADD SWAP10 POP POP PUSH1 0x1 DUP2 ADD SWAP1 POP PUSH2 0x178D JUMP JUMPDEST POP DUP3 SWAP8 POP DUP8 SWAP6 POP POP POP POP POP POP SWAP3 SWAP2 POP POP JUMP JUMPDEST PUSH1 0x0 PUSH1 0x20 DUP3 ADD SWAP1 POP DUP2 DUP2 SUB PUSH1 0x0 DUP4 ADD MSTORE PUSH2 0x17F1 DUP2 DUP5 PUSH2 0x1762 JUMP JUMPDEST SWAP1 POP SWAP3 SWAP2 POP POP JUMP JUMPDEST PUSH1 0x0 DUP2 MLOAD SWAP1 POP SWAP2 SWAP1 POP JUMP JUMPDEST PUSH1 0x0 DUP3 DUP3 MSTORE PUSH1 0x20 DUP3 ADD SWAP1 POP SWAP3 SWAP2 POP POP JUMP JUMPDEST PUSH1 0x0 DUP2 SWAP1 POP PUSH1 0x20 DUP3 ADD SWAP1 POP SWAP2 SWAP1 POP JUMP JUMPDEST PUSH2 0x182E DUP2 PUSH2 0x13D1 JUMP JUMPDEST DUP3 MSTORE POP POP JUMP JUMPDEST PUSH1 0x0 DUP2 MLOAD SWAP1 POP SWAP2 SWAP1 POP JUMP JUMPDEST PUSH1 0x0 DUP3 DUP3 MSTORE PUSH1 0x20 DUP3 ADD SWAP1 POP SWAP3 SWAP2 POP POP JUMP JUMPDEST PUSH1 0x0 DUP2 SWAP1 POP PUSH1 0x20 DUP3 ADD SWAP1 POP SWAP2 SWAP1 POP JUMP JUMPDEST PUSH1 0x0 PUSH2 0x186C DUP4 DUP4 PUSH2 0x1825 JUMP JUMPDEST PUSH1 0x20 DUP4 ADD SWAP1 POP SWAP3 SWAP2 POP POP JUMP JUMPDEST PUSH1 0x0 PUSH1 0x20 DUP3 ADD SWAP1 POP SWAP2 SWAP1 POP JUMP JUMPDEST PUSH1 0x0 PUSH2 0x1890 DUP3 PUSH2 0x1834 JUMP JUMPDEST PUSH2 0x189A DUP2 DUP6 PUSH2 0x183F JUMP JUMPDEST SWAP4 POP PUSH2 0x18A5 DUP4 PUSH2 0x1850 JUMP JUMPDEST DUP1 PUSH1 0x0 JUMPDEST DUP4 DUP2 LT ISZERO PUSH2 0x18D6 JUMPI DUP2 MLOAD PUSH2 0x18BD DUP9 DUP3 PUSH2 0x1860 JUMP JUMPDEST SWAP8 POP PUSH2 0x18C8 DUP4 PUSH2 0x1878 JUMP JUMPDEST SWAP3 POP POP PUSH1 0x1 DUP2 ADD SWAP1 POP PUSH2 0x18A9 JUMP JUMPDEST POP DUP6 SWAP4 POP POP POP POP SWAP3 SWAP2 POP POP JUMP JUMPDEST PUSH1 0x0 PUSH1 0xA0 DUP4 ADD PUSH1 0x0 DUP4 ADD MLOAD PUSH2 0x18FB PUSH1 0x0 DUP7 ADD DUP3 PUSH2 0x1825 JUMP JUMPDEST POP PUSH1 0x20 DUP4 ADD MLOAD DUP5 DUP3 SUB PUSH1 0x20 DUP7 ADD MSTORE PUSH2 0x1913 DUP3 DUP3 PUSH2 0x1288 JUMP JUMPDEST SWAP2 POP POP PUSH1 0x40 DUP4 ADD MLOAD DUP5 DUP3 SUB PUSH1 0x40 DUP7 ADD MSTORE PUSH2 0x192D DUP3 DUP3 PUSH2 0x1885 JUMP JUMPDEST SWAP2 POP POP PUSH1 0x60 DUP4 ADD MLOAD DUP5 DUP3 SUB PUSH1 0x60 DUP7 ADD MSTORE PUSH2 0x1947 DUP3 DUP3 PUSH2 0x1885 JUMP JUMPDEST SWAP2 POP POP PUSH1 0x80 DUP4 ADD MLOAD DUP5 DUP3 SUB PUSH1 0x80 DUP7 ADD MSTORE PUSH2 0x1961 DUP3 DUP3 PUSH2 0x1885 JUMP JUMPDEST SWAP2 POP POP DUP1 SWAP2 POP POP SWAP3 SWAP2 POP POP JUMP JUMPDEST PUSH1 0x0 PUSH2 0x197A DUP4 DUP4 PUSH2 0x18E3 JUMP JUMPDEST SWAP1 POP SWAP3 SWAP2 POP POP JUMP JUMPDEST PUSH1 0x0 PUSH1 0x20 DUP3 ADD SWAP1 POP SWAP2 SWAP1 POP JUMP JUMPDEST PUSH1 0x0 PUSH2 0x199A DUP3 PUSH2 0x17F9 JUMP JUMPDEST PUSH2 0x19A4 DUP2 DUP6 PUSH2 0x1804 JUMP JUMPDEST SWAP4 POP DUP4 PUSH1 0x20 DUP3 MUL DUP6 ADD PUSH2 0x19B6 DUP6 PUSH2 0x1815 JUMP JUMPDEST DUP1 PUSH1 0x0 JUMPDEST DUP6 DUP2 LT ISZERO PUSH2 0x19F2 JUMPI DUP5 DUP5 SUB DUP10 MSTORE DUP2 MLOAD PUSH2 0x19D3 DUP6 DUP3 PUSH2 0x196E JUMP JUMPDEST SWAP5 POP PUSH2 0x19DE DUP4 PUSH2 0x1982 JUMP JUMPDEST SWAP3 POP PUSH1 0x20 DUP11 ADD SWAP10 POP POP PUSH1 0x1 DUP2 ADD SWAP1 POP PUSH2 0x19BA JUMP JUMPDEST POP DUP3 SWAP8 POP DUP8 SWAP6 POP POP POP POP POP POP SWAP3 SWAP2 POP POP JUMP JUMPDEST PUSH1 0x0 PUSH1 0x20 DUP3 ADD SWAP1 POP DUP2 DUP2 SUB PUSH1 0x0 DUP4 ADD MSTORE PUSH2 0x1A1E DUP2 DUP5 PUSH2 0x198F JUMP JUMPDEST SWAP1 POP SWAP3 SWAP2 POP POP JUMP JUMPDEST PUSH1 0x0 DUP2 MLOAD SWAP1 POP SWAP2 SWAP1 POP JUMP JUMPDEST PUSH1 0x0 DUP3 DUP3 MSTORE PUSH1 0x20 DUP3 ADD SWAP1 POP SWAP3 SWAP2 POP POP JUMP JUMPDEST PUSH1 0x0 DUP2 SWAP1 POP PUSH1 0x20 DUP3 ADD SWAP1 POP SWAP2 SWAP1 POP JUMP JUMPDEST PUSH1 0x0 PUSH1 0x40 DUP4 ADD PUSH1 0x0 DUP4 ADD MLOAD DUP5 DUP3 SUB PUSH1 0x0 DUP7 ADD MSTORE PUSH2 0x1A6F DUP3 DUP3 PUSH2 0x1288 JUMP JUMPDEST SWAP2 POP POP PUSH1 0x20 DUP4 ADD MLOAD DUP5 DUP3 SUB PUSH1 0x20 DUP7 ADD MSTORE PUSH2 0x1A89 DUP3 DUP3 PUSH2 0x1288 JUMP JUMPDEST SWAP2 POP POP DUP1 SWAP2 POP POP SWAP3 SWAP2 POP POP JUMP JUMPDEST PUSH1 0x0 PUSH2 0x1AA2 DUP4 DUP4 PUSH2 0x1A52 JUMP JUMPDEST SWAP1 POP SWAP3 SWAP2 POP POP JUMP JUMPDEST PUSH1 0x0 PUSH1 0x20 DUP3 ADD SWAP1 POP SWAP2 SWAP1 POP JUMP JUMPDEST PUSH1 0x0 PUSH2 0x1AC2 DUP3 PUSH2 0x1A26 JUMP JUMPDEST PUSH2 0x1ACC DUP2 DUP6 PUSH2 0x1A31 JUMP JUMPDEST SWAP4 POP DUP4 PUSH1 0x20 DUP3 MUL DUP6 ADD PUSH2 0x1ADE DUP6 PUSH2 0x1A42 JUMP JUMPDEST DUP1 PUSH1 0x0 JUMPDEST DUP6 DUP2 LT ISZERO PUSH2 0x1B1A JUMPI DUP5 DUP5 SUB DUP10 MSTORE DUP2 MLOAD PUSH2 0x1AFB DUP6 DUP3 PUSH2 0x1A96 JUMP JUMPDEST SWAP5 POP PUSH2 0x1B06 DUP4 PUSH2 0x1AAA JUMP JUMPDEST SWAP3 POP PUSH1 0x20 DUP11 ADD SWAP10 POP POP PUSH1 0x1 DUP2 ADD SWAP1 POP PUSH2 0x1AE2 JUMP JUMPDEST POP DUP3 SWAP8 POP DUP8 SWAP6 POP POP POP POP POP POP SWAP3 SWAP2 POP POP JUMP JUMPDEST PUSH1 0x0 PUSH1 0x20 DUP3 ADD SWAP1 POP DUP2 DUP2 SUB PUSH1 0x0 DUP4 ADD MSTORE PUSH2 0x1B46 DUP2 DUP5 PUSH2 0x1AB7 JUMP JUMPDEST SWAP1 POP SWAP3 SWAP2 POP POP JUMP JUMPDEST PUSH1 0x0 PUSH8 0xFFFFFFFFFFFFFFFF DUP3 GT ISZERO PUSH2 0x1B69 JUMPI PUSH2 0x1B68 PUSH2 0x14BF JUMP JUMPDEST JUMPDEST PUSH1 0x20 DUP3 MUL SWAP1 POP PUSH1 0x20 DUP2 ADD SWAP1 POP SWAP2 SWAP1 POP JUMP JUMPDEST PUSH1 0x0 DUP1 REVERT JUMPDEST PUSH1 0x0 PUSH2 0x1B92 PUSH2 0x1B8D DUP5 PUSH2 0x1B4E JUMP JUMPDEST PUSH2 0x151F JUMP JUMPDEST SWAP1 POP DUP1 DUP4 DUP3 MSTORE PUSH1 0x20 DUP3 ADD SWAP1 POP PUSH1 0x20 DUP5 MUL DUP4 ADD DUP6 DUP2 GT ISZERO PUSH2 0x1BB5 JUMPI PUSH2 0x1BB4 PUSH2 0x1B7A JUMP JUMPDEST JUMPDEST DUP4 JUMPDEST DUP2 DUP2 LT ISZERO PUSH2 0x1BDE JUMPI DUP1 PUSH2 0x1BCA DUP9 DUP3 PUSH2 0x13F2 JUMP JUMPDEST DUP5 MSTORE PUSH1 0x20 DUP5 ADD SWAP4 POP POP PUSH1 0x20 DUP2 ADD SWAP1 POP PUSH2 0x1BB7 JUMP JUMPDEST POP POP POP SWAP4 SWAP3 POP POP POP JUMP JUMPDEST PUSH1 0x0 DUP3 PUSH1 0x1F DUP4 ADD SLT PUSH2 0x1BFD JUMPI PUSH2 0x1BFC PUSH2 0x14B5 JUMP JUMPDEST JUMPDEST DUP2 CALLDATALOAD PUSH2 0x1C0D DUP5 DUP3 PUSH1 0x20 DUP7 ADD PUSH2 0x1B7F JUMP JUMPDEST SWAP2 POP POP SWAP3 SWAP2 POP POP JUMP JUMPDEST PUSH1 0x0 DUP1 PUSH1 0x0 DUP1 PUSH1 0x0 PUSH1 0xA0 DUP7 DUP9 SUB SLT ISZERO PUSH2 0x1C32 JUMPI PUSH2 0x1C31 PUSH2 0x13C7 JUMP JUMPDEST JUMPDEST PUSH1 0x0 DUP7 ADD CALLDATALOAD PUSH8 0xFFFFFFFFFFFFFFFF DUP2 GT ISZERO PUSH2 0x1C50 JUMPI PUSH2 0x1C4F PUSH2 0x13CC JUMP JUMPDEST JUMPDEST PUSH2 0x1C5C DUP9 DUP3 DUP10 ADD PUSH2 0x15BC JUMP JUMPDEST SWAP6 POP POP PUSH1 0x20 PUSH2 0x1C6D DUP9 DUP3 DUP10 ADD PUSH2 0x13F2 JUMP JUMPDEST SWAP5 POP POP PUSH1 0x40 DUP7 ADD CALLDATALOAD PUSH8 0xFFFFFFFFFFFFFFFF DUP2 GT ISZERO PUSH2 0x1C8E JUMPI PUSH2 0x1C8D PUSH2 0x13CC JUMP JUMPDEST JUMPDEST PUSH2 0x1C9A DUP9 DUP3 DUP10 ADD PUSH2 0x1BE8 JUMP JUMPDEST SWAP4 POP POP PUSH1 0x60 DUP7 ADD CALLDATALOAD PUSH8 0xFFFFFFFFFFFFFFFF DUP2 GT ISZERO PUSH2 0x1CBB JUMPI PUSH2 0x1CBA PUSH2 0x13CC JUMP JUMPDEST JUMPDEST PUSH2 0x1CC7 DUP9 DUP3 DUP10 ADD PUSH2 0x1BE8 JUMP JUMPDEST SWAP3 POP POP PUSH1 0x80 DUP7 ADD CALLDATALOAD PUSH8 0xFFFFFFFFFFFFFFFF DUP2 GT ISZERO PUSH2 0x1CE8 JUMPI PUSH2 0x1CE7 PUSH2 0x13CC JUMP JUMPDEST JUMPDEST PUSH2 0x1CF4 DUP9 DUP3 DUP10 ADD PUSH2 0x1BE8 JUMP JUMPDEST SWAP2 POP POP SWAP3 SWAP6 POP SWAP3 SWAP6 SWAP1 SWAP4 POP JUMP JUMPDEST PUSH2 0x1D0A DUP2 PUSH2 0x13D1 JUMP JUMPDEST DUP3 MSTORE POP POP JUMP JUMPDEST PUSH1 0x0 PUSH1 0x40 DUP3 ADD SWAP1 POP PUSH2 0x1D25 PUSH1 0x0 DUP4 ADD DUP6 PUSH2 0x1D01 JUMP JUMPDEST PUSH2 0x1D32 PUSH1 0x20 DUP4 ADD DUP5 PUSH2 0x1D01 JUMP JUMPDEST SWAP4 SWAP3 POP POP POP JUMP JUMPDEST PUSH32 0x4E487B7100000000000000000000000000000000000000000000000000000000 PUSH1 0x0 MSTORE PUSH1 0x22 PUSH1 0x4 MSTORE PUSH1 0x24 PUSH1 0x0 REVERT JUMPDEST PUSH1 0x0 PUSH1 0x2 DUP3 DIV SWAP1 POP PUSH1 0x1 DUP3 AND DUP1 PUSH2 0x1D80 JUMPI PUSH1 0x7F DUP3 AND SWAP2 POP JUMPDEST PUSH1 0x20 DUP3 LT DUP2 SUB PUSH2 0x1D93 JUMPI PUSH2 0x1D92 PUSH2 0x1D39 JUMP JUMPDEST JUMPDEST POP SWAP2 SWAP1 POP JUMP JUMPDEST PUSH1 0x0 DUP2 SWAP1 POP DUP2 PUSH1 0x0 MSTORE PUSH1 0x20 PUSH1 0x0 KECCAK256 SWAP1 POP SWAP2 SWAP1 POP JUMP JUMPDEST PUSH1 0x0 PUSH1 0x20 PUSH1 0x1F DUP4 ADD DIV SWAP1 POP SWAP2 SWAP1 POP JUMP JUMPDEST PUSH1 0x0 DUP3 DUP3 SHL SWAP1 POP SWAP3 SWAP2 POP POP JUMP JUMPDEST PUSH1 0x0 PUSH1 0x8 DUP4 MUL PUSH2 0x1DFB PUSH32 0xFFFFFFFFFFFFFFFFFFFFFFFFFFFFFFFFFFFFFFFFFFFFFFFFFFFFFFFFFFFFFFFF DUP3 PUSH2 0x1DBE JUMP JUMPDEST PUSH2 0x1E05 DUP7 DUP4 PUSH2 0x1DBE JUMP JUMPDEST SWAP6 POP DUP1 NOT DUP5 AND SWAP4 POP DUP1 DUP7 AND DUP5 OR SWAP3 POP POP POP SWAP4 SWAP3 POP POP POP JUMP JUMPDEST PUSH1 0x0 DUP2 SWAP1 POP SWAP2 SWAP1 POP JUMP JUMPDEST PUSH1 0x0 PUSH2 0x1E42 PUSH2 0x1E3D PUSH2 0x1E38 DUP5 PUSH2 0x13D1 JUMP JUMPDEST PUSH2 0x1E1D JUMP JUMPDEST PUSH2 0x13D1 JUMP JUMPDEST SWAP1 POP SWAP2 SWAP1 POP JUMP JUMPDEST PUSH1 0x0 DUP2 SWAP1 POP SWAP2 SWAP1 POP JUMP JUMPDEST PUSH2 0x1E5C DUP4 PUSH2 0x1E27 JUMP JUMPDEST PUSH2 0x1E70 PUSH2 0x1E68 DUP3 PUSH2 0x1E49 JUMP JUMPDEST DUP5 DUP5 SLOAD PUSH2 0x1DCB JUMP JUMPDEST DUP3 SSTORE POP POP POP POP JUMP JUMPDEST PUSH1 0x0 SWAP1 JUMP JUMPDEST PUSH2 0x1E85 PUSH2 0x1E78 JUMP JUMPDEST PUSH2 0x1E90 DUP2 DUP5 DUP5 PUSH2 0x1E53 JUMP JUMPDEST POP POP POP JUMP JUMPDEST JUMPDEST DUP2 DUP2 LT ISZERO PUSH2 0x1EB4 JUMPI PUSH2 0x1EA9 PUSH1 0x0 DUP3 PUSH2 0x1E7D JUMP JUMPDEST PUSH1 0x1 DUP2 ADD SWAP1 POP PUSH2 0x1E96 JUMP JUMPDEST POP POP JUMP JUMPDEST PUSH1 0x1F DUP3 GT ISZERO PUSH2 0x1EF9 JUMPI PUSH2 0x1ECA DUP2 PUSH2 0x1D99 JUMP JUMPDEST PUSH2 0x1ED3 DUP5 PUSH2 0x1DAE JUMP JUMPDEST DUP2 ADD PUSH1 0x20 DUP6 LT ISZERO PUSH2 0x1EE2 JUMPI DUP2 SWAP1 POP JUMPDEST PUSH2 0x1EF6 PUSH2 0x1EEE DUP6 PUSH2 0x1DAE JUMP JUMPDEST DUP4 ADD DUP3 PUSH2 0x1E95 JUMP JUMPDEST POP POP JUMPDEST POP POP POP JUMP JUMPDEST PUSH1 0x0 DUP3 DUP3 SHR SWAP1 POP SWAP3 SWAP2 POP POP JUMP JUMPDEST PUSH1 0x0 PUSH2 0x1F1C PUSH1 0x0 NOT DUP5 PUSH1 0x8 MUL PUSH2 0x1EFE JUMP JUMPDEST NOT DUP1 DUP4 AND SWAP2 POP POP SWAP3 SWAP2 POP POP JUMP JUMPDEST PUSH1 0x0 PUSH2 0x1F35 DUP4 DUP4 PUSH2 0x1F0B JUMP JUMPDEST SWAP2 POP DUP3 PUSH1 0x2 MUL DUP3 OR SWAP1 POP SWAP3 SWAP2 POP POP JUMP JUMPDEST PUSH2 0x1F4E DUP3 PUSH2 0x1231 JUMP JUMPDEST PUSH8 0xFFFFFFFFFFFFFFFF DUP2 GT ISZERO PUSH2 0x1F67 JUMPI PUSH2 0x1F66 PUSH2 0x14BF JUMP JUMPDEST JUMPDEST PUSH2 0x1F71 DUP3 SLOAD PUSH2 0x1D68 JUMP JUMPDEST PUSH2 0x1F7C DUP3 DUP3 DUP6 PUSH2 0x1EB8 JUMP JUMPDEST PUSH1 0x0 PUSH1 0x20 SWAP1 POP PUSH1 0x1F DUP4 GT PUSH1 0x1 DUP2 EQ PUSH2 0x1FAF JUMPI PUSH1 0x0 DUP5 ISZERO PUSH2 0x1F9D JUMPI DUP3 DUP8 ADD MLOAD SWAP1 POP JUMPDEST PUSH2 0x1FA7 DUP6 DUP3 PUSH2 0x1F29 JUMP JUMPDEST DUP7 SSTORE POP PUSH2 0x200F JUMP JUMPDEST PUSH1 0x1F NOT DUP5 AND PUSH2 0x1FBD DUP7 PUSH2 0x1D99 JUMP JUMPDEST PUSH1 0x0 JUMPDEST DUP3 DUP2 LT ISZERO PUSH2 0x1FE5 JUMPI DUP5 DUP10 ADD MLOAD DUP3 SSTORE PUSH1 0x1 DUP3 ADD SWAP2 POP PUSH1 0x20 DUP6 ADD SWAP5 POP PUSH1 0x20 DUP2 ADD SWAP1 POP PUSH2 0x1FC0 JUMP JUMPDEST DUP7 DUP4 LT ISZERO PUSH2 0x2002 JUMPI DUP5 DUP10 ADD MLOAD PUSH2 0x1FFE PUSH1 0x1F DUP10 AND DUP3 PUSH2 0x1F0B JUMP JUMPDEST DUP4 SSTORE POP JUMPDEST PUSH1 0x1 PUSH1 0x2 DUP9 MUL ADD DUP9 SSTORE POP POP POP JUMPDEST POP POP POP POP POP POP JUMP JUMPDEST PUSH32 0x496420697320696E76616C69642C20656E74657220612076616C696420696400 PUSH1 0x0 DUP3 ADD MSTORE POP JUMP JUMPDEST PUSH1 0x0 PUSH2 0x204D PUSH1 0x1F DUP4 PUSH2 0x1434 JUMP JUMPDEST SWAP2 POP PUSH2 0x2058 DUP3 PUSH2 0x2017 JUMP JUMPDEST PUSH1 0x20 DUP3 ADD SWAP1 POP SWAP2 SWAP1 POP JUMP JUMPDEST PUSH1 0x0 PUSH1 0x20 DUP3 ADD SWAP1 POP DUP2 DUP2 SUB PUSH1 0x0 DUP4 ADD MSTORE PUSH2 0x207C DUP2 PUSH2 0x2040 JUMP JUMPDEST SWAP1 POP SWAP2 SWAP1 POP JUMP JUMPDEST PUSH32 0x546865206E616D65206D7573742068617665206D6F7265207468616E2074776F PUSH1 0x0 DUP3 ADD MSTORE PUSH32 0x2063686172616374657273000000000000000000000000000000000000000000 PUSH1 0x20 DUP3 ADD MSTORE POP JUMP JUMPDEST PUSH1 0x0 PUSH2 0x20DF PUSH1 0x2B DUP4 PUSH2 0x1434 JUMP JUMPDEST SWAP2 POP PUSH2 0x20EA DUP3 PUSH2 0x2083 JUMP JUMPDEST PUSH1 0x40 DUP3 ADD SWAP1 POP SWAP2 SWAP1 POP JUMP JUMPDEST PUSH1 0x0 PUSH1 0x20 DUP3 ADD SWAP1 POP DUP2 DUP2 SUB PUSH1 0x0 DUP4 ADD MSTORE PUSH2 0x210E DUP2 PUSH2 0x20D2 JUMP JUMPDEST SWAP1 POP SWAP2 SWAP1 POP JUMP JUMPDEST PUSH32 0x4E487B7100000000000000000000000000000000000000000000000000000000 PUSH1 0x0 MSTORE PUSH1 0x11 PUSH1 0x4 MSTORE PUSH1 0x24 PUSH1 0x0 REVERT JUMPDEST PUSH1 0x0 PUSH2 0x214F DUP3 PUSH2 0x13D1 JUMP JUMPDEST SWAP2 POP PUSH32 0xFFFFFFFFFFFFFFFFFFFFFFFFFFFFFFFFFFFFFFFFFFFFFFFFFFFFFFFFFFFFFFFF DUP3 SUB PUSH2 0x2181 JUMPI PUSH2 0x2180 PUSH2 0x2115 JUMP JUMPDEST JUMPDEST PUSH1 0x1 DUP3 ADD SWAP1 POP SWAP2 SWAP1 POP JUMP JUMPDEST PUSH32 0x6E657720706F6B656D6F6E2063726561746564207375636365737366756C6C79 PUSH1 0x0 DUP3 ADD MSTORE PUSH32 0x2100000000000000000000000000000000000000000000000000000000000000 PUSH1 0x20 DUP3 ADD MSTORE POP JUMP JUMPDEST PUSH1 0x0 PUSH2 0x21E8 PUSH1 0x21 DUP4 PUSH2 0x1434 JUMP JUMPDEST SWAP2 POP PUSH2 0x21F3 DUP3 PUSH2 0x218C JUMP JUMPDEST PUSH1 0x40 DUP3 ADD SWAP1 POP SWAP2 SWAP1 POP JUMP JUMPDEST PUSH1 0x0 PUSH1 0x40 DUP3 ADD SWAP1 POP PUSH2 0x2213 PUSH1 0x0 DUP4 ADD DUP5 PUSH2 0x16A7 JUMP JUMPDEST DUP2 DUP2 SUB PUSH1 0x20 DUP4 ADD MSTORE PUSH2 0x2224 DUP2 PUSH2 0x21DB JUMP JUMPDEST SWAP1 POP SWAP3 SWAP2 POP POP JUMP JUMPDEST PUSH1 0x0 PUSH2 0x2237 DUP3 PUSH2 0x13D1 JUMP JUMPDEST SWAP2 POP PUSH2 0x2242 DUP4 PUSH2 0x13D1 JUMP JUMPDEST SWAP3 POP DUP3 DUP3 MUL PUSH2 0x2250 DUP2 PUSH2 0x13D1 JUMP JUMPDEST SWAP2 POP DUP3 DUP3 DIV DUP5 EQ DUP4 ISZERO OR PUSH2 0x2267 JUMPI PUSH2 0x2266 PUSH2 0x2115 JUMP JUMPDEST JUMPDEST POP SWAP3 SWAP2 POP POP JUMP JUMPDEST PUSH1 0x0 PUSH2 0x2279 DUP3 PUSH2 0x13D1 JUMP JUMPDEST SWAP2 POP PUSH2 0x2284 DUP4 PUSH2 0x13D1 JUMP JUMPDEST SWAP3 POP DUP3 DUP3 ADD SWAP1 POP DUP1 DUP3 GT ISZERO PUSH2 0x229C JUMPI PUSH2 0x229B PUSH2 0x2115 JUMP JUMPDEST JUMPDEST SWAP3 SWAP2 POP POP JUMP INVALID LOG2 PUSH5 0x6970667358 0x22 SLT KECCAK256 0xDB 0xB7 0xBD PUSH26 0xA8A9A00EE82CDFC484455AF414D7134643FE8E5E50A1B2672E5 0xBD CREATE PUSH5 0x736F6C6343 STOP ADDMOD SLT STOP CALLER "},"methodIdentifiers":{"createHability(string,string,uint256)":"12efb9df","createPokemon(string,uint256,uint256[],uint256[],uint256[])":"ddf5ba4e","createType(string,string,uint256)":"38a5be09","createWeaknesses(string,string,uint256)":"90dc9cb9","getAllHabilities()":"40898408","getAllPokemons()":"5e916790","getAllTypes()":"09dddcf0","getAllWeaknesses()":"b9388fd2","getResult()":"de292789","habilityById(uint256)":"b6e76f09","pokemonToOwner(uint256)":"2f7467b3","pokemonWeaknessesById(uint256)":"10bea8ae","pokemontypeById(uint256)":"45d68431"}}}}}