{
  "_format": "hh-sol-artifact-1",
  "contractName": "PokemonFactory",
  "sourceName": "contracts/PokemonFactory.sol",
  "abi": [
    {
      "anonymous": false,
      "inputs": [
        {
          "indexed": false,
          "internalType": "address",
          "name": "sender",
          "type": "address"
        },
        {
          "indexed": false,
          "internalType": "string",
          "name": "message",
          "type": "string"
        }
      ],
      "name": "eventNewPokemon",
      "type": "event"
    },
    {
      "inputs": [
        {
          "internalType": "string",
          "name": "_name",
          "type": "string"
        },
        {
          "internalType": "string",
          "name": "_description",
          "type": "string"
        },
        {
          "internalType": "uint256",
          "name": "_id",
          "type": "uint256"
        }
      ],
      "name": "createHability",
      "outputs": [],
      "stateMutability": "nonpayable",
      "type": "function"
    },
    {
      "inputs": [
        {
          "internalType": "string",
          "name": "_name",
          "type": "string"
        },
        {
          "internalType": "uint256",
          "name": "_id",
          "type": "uint256"
        },
        {
          "internalType": "uint256[]",
          "name": "_habilityIds",
          "type": "uint256[]"
        },
        {
          "internalType": "uint256[]",
          "name": "_pokemonType",
          "type": "uint256[]"
        },
        {
          "internalType": "uint256[]",
          "name": "_pokemonWeaknesses",
          "type": "uint256[]"
        }
      ],
      "name": "createPokemon",
      "outputs": [],
      "stateMutability": "nonpayable",
      "type": "function"
    },
    {
      "inputs": [
        {
          "internalType": "string",
          "name": "_name",
          "type": "string"
        },
        {
          "internalType": "string",
          "name": "_description",
          "type": "string"
        },
        {
          "internalType": "uint256",
          "name": "_id",
          "type": "uint256"
        }
      ],
      "name": "createType",
      "outputs": [],
      "stateMutability": "nonpayable",
      "type": "function"
    },
    {
      "inputs": [
        {
          "internalType": "string",
          "name": "_name",
          "type": "string"
        },
        {
          "internalType": "string",
          "name": "_description",
          "type": "string"
        },
        {
          "internalType": "uint256",
          "name": "_id",
          "type": "uint256"
        }
      ],
      "name": "createWeaknesses",
      "outputs": [],
      "stateMutability": "nonpayable",
      "type": "function"
    },
    {
      "inputs": [],
      "name": "getAllHabilities",
      "outputs": [
        {
          "components": [
            {
              "internalType": "string",
              "name": "name",
              "type": "string"
            },
            {
              "internalType": "string",
              "name": "description",
              "type": "string"
            }
          ],
          "internalType": "struct PokemonFactory.Hability[]",
          "name": "",
          "type": "tuple[]"
        }
      ],
      "stateMutability": "view",
      "type": "function"
    },
    {
      "inputs": [],
      "name": "getAllPokemons",
      "outputs": [
        {
          "components": [
            {
              "internalType": "uint256",
              "name": "id",
              "type": "uint256"
            },
            {
              "internalType": "string",
              "name": "name",
              "type": "string"
            },
            {
              "internalType": "uint256[]",
              "name": "habilitys",
              "type": "uint256[]"
            },
            {
              "internalType": "uint256[]",
              "name": "pokemonType",
              "type": "uint256[]"
            },
            {
              "internalType": "uint256[]",
              "name": "pokemonWeaknesses",
              "type": "uint256[]"
            }
          ],
          "internalType": "struct PokemonFactory.Pokemon[]",
          "name": "",
          "type": "tuple[]"
        }
      ],
      "stateMutability": "view",
      "type": "function"
    },
    {
      "inputs": [],
      "name": "getAllTypes",
      "outputs": [
        {
          "components": [
            {
              "internalType": "string",
              "name": "name",
              "type": "string"
            },
            {
              "internalType": "string",
              "name": "description",
              "type": "string"
            }
          ],
          "internalType": "struct PokemonFactory.PokemonType[]",
          "name": "",
          "type": "tuple[]"
        }
      ],
      "stateMutability": "view",
      "type": "function"
    },
    {
      "inputs": [],
      "name": "getAllWeaknesses",
      "outputs": [
        {
          "components": [
            {
              "internalType": "string",
              "name": "name",
              "type": "string"
            },
            {
              "internalType": "string",
              "name": "description",
              "type": "string"
            }
          ],
          "internalType": "struct PokemonFactory.PokemonWeaknesses[]",
          "name": "",
          "type": "tuple[]"
        }
      ],
      "stateMutability": "view",
      "type": "function"
    },
    {
      "inputs": [],
      "name": "getResult",
      "outputs": [
        {
          "internalType": "uint256",
          "name": "product",
          "type": "uint256"
        },
        {
          "internalType": "uint256",
          "name": "sum",
          "type": "uint256"
        }
      ],
      "stateMutability": "pure",
      "type": "function"
    },
    {
      "inputs": [
        {
          "internalType": "uint256",
          "name": "",
          "type": "uint256"
        }
      ],
      "name": "habilityById",
      "outputs": [
        {
          "internalType": "string",
          "name": "name",
          "type": "string"
        },
        {
          "internalType": "string",
          "name": "description",
          "type": "string"
        }
      ],
      "stateMutability": "view",
      "type": "function"
    },
    {
      "inputs": [
        {
          "internalType": "uint256",
          "name": "",
          "type": "uint256"
        }
      ],
      "name": "pokemonToOwner",
      "outputs": [
        {
          "internalType": "address",
          "name": "",
          "type": "address"
        }
      ],
      "stateMutability": "view",
      "type": "function"
    },
    {
      "inputs": [
        {
          "internalType": "uint256",
          "name": "",
          "type": "uint256"
        }
      ],
      "name": "pokemonWeaknessesById",
      "outputs": [
        {
          "internalType": "string",
          "name": "name",
          "type": "string"
        },
        {
          "internalType": "string",
          "name": "description",
          "type": "string"
        }
      ],
      "stateMutability": "view",
      "type": "function"
    },
    {
      "inputs": [
        {
          "internalType": "uint256",
          "name": "",
          "type": "uint256"
        }
      ],
      "name": "pokemontypeById",
      "outputs": [
        {
          "internalType": "string",
          "name": "name",
          "type": "string"
        },
        {
          "internalType": "string",
          "name": "description",
          "type": "string"
        }
      ],
      "stateMutability": "view",
      "type": "function"
    }
  ],
  "bytecode": "0x608060405234801561001057600080fd5b506122d8806100206000396000f3fe608060405234801561001057600080fd5b50600436106100cf5760003560e01c806345d684311161008c578063b6e76f0911610066578063b6e76f0914610214578063b9388fd214610245578063ddf5ba4e14610263578063de2927891461027f576100cf565b806345d68431146101a95780635e916790146101da57806390dc9cb9146101f8576100cf565b806309dddcf0146100d457806310bea8ae146100f257806312efb9df146101235780632f7467b31461013f57806338a5be091461016f578063408984081461018b575b600080fd5b6100dc61029e565b6040516100e9919061139b565b60405180910390f35b61010c60048036038101906101079190611407565b610421565b60405161011a92919061147e565b60405180910390f35b61013d600480360381019061013891906115ea565b610555565b005b61015960048036038101906101549190611407565b610611565b60405161016691906116b6565b60405180910390f35b610189600480360381019061018491906115ea565b610644565b005b610193610700565b6040516101a091906117d7565b60405180910390f35b6101c360048036038101906101be9190611407565b610883565b6040516101d192919061147e565b60405180910390f35b6101e26109b7565b6040516101ef9190611a04565b60405180910390f35b610212600480360381019061020d91906115ea565b610bba565b005b61022e60048036038101906102299190611407565b610c76565b60405161023c92919061147e565b60405180910390f35b61024d610daa565b60405161025a9190611b2c565b60405180910390f35b61027d60048036038101906102789190611c16565b610f2d565b005b61028761116a565b604051610295929190611d10565b60405180910390f35b60606002805480602002602001604051908101604052809291908181526020016000905b8282101561041857838290600052602060002090600202016040518060400160405290816000820180546102f590611d68565b80601f016020809104026020016040519081016040528092919081815260200182805461032190611d68565b801561036e5780601f106103435761010080835404028352916020019161036e565b820191906000526020600020905b81548152906001019060200180831161035157829003601f168201915b5050505050815260200160018201805461038790611d68565b80601f01602080910402602001604051908101604052809291908181526020018280546103b390611d68565b80156104005780601f106103d557610100808354040283529160200191610400565b820191906000526020600020905b8154815290600101906020018083116103e357829003601f168201915b505050505081525050815260200190600101906102c2565b50505050905090565b600960205280600052604060002060009150905080600001805461044490611d68565b80601f016020809104026020016040519081016040528092919081815260200182805461047090611d68565b80156104bd5780601f10610492576101008083540402835291602001916104bd565b820191906000526020600020905b8154815290600101906020018083116104a057829003601f168201915b5050505050908060010180546104d290611d68565b80601f01602080910402602001604051908101604052809291908181526020018280546104fe90611d68565b801561054b5780601f106105205761010080835404028352916020019161054b565b820191906000526020600020905b81548152906001019060200180831161052e57829003601f168201915b5050505050905082565b60006040518060400160405280858152602001848152509050600181908060018154018082558091505060019003906000526020600020906002020160009091909190915060008201518160000190816105af9190611f45565b5060208201518160010190816105c59190611f45565b505050806007600084815260200190815260200160002060008201518160000190816105f19190611f45565b5060208201518160010190816106079190611f45565b5090505050505050565b60046020528060005260406000206000915054906101000a900473ffffffffffffffffffffffffffffffffffffffff1681565b600060405180604001604052808581526020018481525090506002819080600181540180825580915050600190039060005260206000209060020201600090919091909150600082015181600001908161069e9190611f45565b5060208201518160010190816106b49190611f45565b505050806008600084815260200190815260200160002060008201518160000190816106e09190611f45565b5060208201518160010190816106f69190611f45565b5090505050505050565b60606001805480602002602001604051908101604052809291908181526020016000905b8282101561087a578382906000526020600020906002020160405180604001604052908160008201805461075790611d68565b80601f016020809104026020016040519081016040528092919081815260200182805461078390611d68565b80156107d05780601f106107a5576101008083540402835291602001916107d0565b820191906000526020600020905b8154815290600101906020018083116107b357829003601f168201915b505050505081526020016001820180546107e990611d68565b80601f016020809104026020016040519081016040528092919081815260200182805461081590611d68565b80156108625780601f1061083757610100808354040283529160200191610862565b820191906000526020600020905b81548152906001019060200180831161084557829003601f168201915b50505050508152505081526020019060010190610724565b50505050905090565b60086020528060005260406000206000915090508060000180546108a690611d68565b80601f01602080910402602001604051908101604052809291908181526020018280546108d290611d68565b801561091f5780601f106108f45761010080835404028352916020019161091f565b820191906000526020600020905b81548152906001019060200180831161090257829003601f168201915b50505050509080600101805461093490611d68565b80601f016020809104026020016040519081016040528092919081815260200182805461096090611d68565b80156109ad5780601f10610982576101008083540402835291602001916109ad565b820191906000526020600020905b81548152906001019060200180831161099057829003601f168201915b5050505050905082565b60606000805480602002602001604051908101604052809291908181526020016000905b82821015610bb157838290600052602060002090600502016040518060a001604052908160008201548152602001600182018054610a1890611d68565b80601f0160208091040260200160405190810160405280929190818152602001828054610a4490611d68565b8015610a915780601f10610a6657610100808354040283529160200191610a91565b820191906000526020600020905b815481529060010190602001808311610a7457829003601f168201915b5050505050815260200160028201805480602002602001604051908101604052809291908181526020018280548015610ae957602002820191906000526020600020905b815481526020019060010190808311610ad5575b5050505050815260200160038201805480602002602001604051908101604052809291908181526020018280548015610b4157602002820191906000526020600020905b815481526020019060010190808311610b2d575b5050505050815260200160048201805480602002602001604051908101604052809291908181526020018280548015610b9957602002820191906000526020600020905b815481526020019060010190808311610b85575b505050505081525050815260200190600101906109db565b50505050905090565b6000604051806040016040528085815260200184815250905060038190806001815401808255809150506001900390600052602060002090600202016000909190919091506000820151816000019081610c149190611f45565b506020820151816001019081610c2a9190611f45565b50505080600960008481526020019081526020016000206000820151816000019081610c569190611f45565b506020820151816001019081610c6c9190611f45565b5090505050505050565b6007602052806000526040600020600091509050806000018054610c9990611d68565b80601f0160208091040260200160405190810160405280929190818152602001828054610cc590611d68565b8015610d125780601f10610ce757610100808354040283529160200191610d12565b820191906000526020600020905b815481529060010190602001808311610cf557829003601f168201915b505050505090806001018054610d2790611d68565b80601f0160208091040260200160405190810160405280929190818152602001828054610d5390611d68565b8015610da05780601f10610d7557610100808354040283529160200191610da0565b820191906000526020600020905b815481529060010190602001808311610d8357829003601f168201915b5050505050905082565b60606003805480602002602001604051908101604052809291908181526020016000905b82821015610f245783829060005260206000209060020201604051806040016040529081600082018054610e0190611d68565b80601f0160208091040260200160405190810160405280929190818152602001828054610e2d90611d68565b8015610e7a5780601f10610e4f57610100808354040283529160200191610e7a565b820191906000526020600020905b815481529060010190602001808311610e5d57829003601f168201915b50505050508152602001600182018054610e9390611d68565b80601f0160208091040260200160405190810160405280929190818152602001828054610ebf90611d68565b8015610f0c5780601f10610ee157610100808354040283529160200191610f0c565b820191906000526020600020905b815481529060010190602001808311610eef57829003601f168201915b50505050508152505081526020019060010190610dce565b50505050905090565b600085905060008511610f75576040517f08c379a0000000000000000000000000000000000000000000000000000000008152600401610f6c90612063565b60405180910390fd5b6002815111610fb9576040517f08c379a0000000000000000000000000000000000000000000000000000000008152600401610fb0906120f5565b60405180910390fd5b60006040518060a0016040528087815260200188815260200186815260200185815260200184815250908060018154018082558091505060019003906000526020600020906005020160009091909190915060008201518160000155602082015181600101908161102a9190611f45565b50604082015181600201908051906020019061104792919061119b565b50606082015181600301908051906020019061106492919061119b565b50608082015181600401908051906020019061108192919061119b565b505050336004600087815260200190815260200160002060006101000a81548173ffffffffffffffffffffffffffffffffffffffff021916908373ffffffffffffffffffffffffffffffffffffffff160217905550600560003373ffffffffffffffffffffffffffffffffffffffff1673ffffffffffffffffffffffffffffffffffffffff168152602001908152602001600020600081548092919061112690612144565b91905055507fe5a4c13681fc1ec969a5d1e2a8f13730bca81a4041367c6493477d52103b1ce23360405161115a91906121fe565b60405180910390a1505050505050565b6000806000600190506000600290508082611185919061222c565b93508082611193919061226e565b925050509091565b8280548282559060005260206000209081019282156111d7579160200282015b828111156111d65782518255916020019190600101906111bb565b5b5090506111e491906111e8565b5090565b5b808211156112015760008160009055506001016111e9565b5090565b600081519050919050565b600082825260208201905092915050565b6000819050602082019050919050565b600081519050919050565b600082825260208201905092915050565b60005b8381101561126b578082015181840152602081019050611250565b60008484015250505050565b6000601f19601f8301169050919050565b600061129382611231565b61129d818561123c565b93506112ad81856020860161124d565b6112b681611277565b840191505092915050565b600060408301600083015184820360008601526112de8282611288565b915050602083015184820360208601526112f88282611288565b9150508091505092915050565b600061131183836112c1565b905092915050565b6000602082019050919050565b600061133182611205565b61133b8185611210565b93508360208202850161134d85611221565b8060005b85811015611389578484038952815161136a8582611305565b945061137583611319565b925060208a01995050600181019050611351565b50829750879550505050505092915050565b600060208201905081810360008301526113b58184611326565b905092915050565b6000604051905090565b600080fd5b600080fd5b6000819050919050565b6113e4816113d1565b81146113ef57600080fd5b50565b600081359050611401816113db565b92915050565b60006020828403121561141d5761141c6113c7565b5b600061142b848285016113f2565b91505092915050565b600082825260208201905092915050565b600061145082611231565b61145a8185611434565b935061146a81856020860161124d565b61147381611277565b840191505092915050565b600060408201905081810360008301526114988185611445565b905081810360208301526114ac8184611445565b90509392505050565b600080fd5b600080fd5b7f4e487b7100000000000000000000000000000000000000000000000000000000600052604160045260246000fd5b6114f782611277565b810181811067ffffffffffffffff82111715611516576115156114bf565b5b80604052505050565b60006115296113bd565b905061153582826114ee565b919050565b600067ffffffffffffffff821115611555576115546114bf565b5b61155e82611277565b9050602081019050919050565b82818337600083830152505050565b600061158d6115888461153a565b61151f565b9050828152602081018484840111156115a9576115a86114ba565b5b6115b484828561156b565b509392505050565b600082601f8301126115d1576115d06114b5565b5b81356115e184826020860161157a565b91505092915050565b600080600060608486031215611603576116026113c7565b5b600084013567ffffffffffffffff811115611621576116206113cc565b5b61162d868287016115bc565b935050602084013567ffffffffffffffff81111561164e5761164d6113cc565b5b61165a868287016115bc565b925050604061166b868287016113f2565b9150509250925092565b600073ffffffffffffffffffffffffffffffffffffffff82169050919050565b60006116a082611675565b9050919050565b6116b081611695565b82525050565b60006020820190506116cb60008301846116a7565b92915050565b600081519050919050565b600082825260208201905092915050565b6000819050602082019050919050565b6000604083016000830151848203600086015261171a8282611288565b915050602083015184820360208601526117348282611288565b9150508091505092915050565b600061174d83836116fd565b905092915050565b6000602082019050919050565b600061176d826116d1565b61177781856116dc565b935083602082028501611789856116ed565b8060005b858110156117c557848403895281516117a68582611741565b94506117b183611755565b925060208a0199505060018101905061178d565b50829750879550505050505092915050565b600060208201905081810360008301526117f18184611762565b905092915050565b600081519050919050565b600082825260208201905092915050565b6000819050602082019050919050565b61182e816113d1565b82525050565b600081519050919050565b600082825260208201905092915050565b6000819050602082019050919050565b600061186c8383611825565b60208301905092915050565b6000602082019050919050565b600061189082611834565b61189a818561183f565b93506118a583611850565b8060005b838110156118d65781516118bd8882611860565b97506118c883611878565b9250506001810190506118a9565b5085935050505092915050565b600060a0830160008301516118fb6000860182611825565b50602083015184820360208601526119138282611288565b9150506040830151848203604086015261192d8282611885565b915050606083015184820360608601526119478282611885565b915050608083015184820360808601526119618282611885565b9150508091505092915050565b600061197a83836118e3565b905092915050565b6000602082019050919050565b600061199a826117f9565b6119a48185611804565b9350836020820285016119b685611815565b8060005b858110156119f257848403895281516119d3858261196e565b94506119de83611982565b925060208a019950506001810190506119ba565b50829750879550505050505092915050565b60006020820190508181036000830152611a1e818461198f565b905092915050565b600081519050919050565b600082825260208201905092915050565b6000819050602082019050919050565b60006040830160008301518482036000860152611a6f8282611288565b91505060208301518482036020860152611a898282611288565b9150508091505092915050565b6000611aa28383611a52565b905092915050565b6000602082019050919050565b6000611ac282611a26565b611acc8185611a31565b935083602082028501611ade85611a42565b8060005b85811015611b1a5784840389528151611afb8582611a96565b9450611b0683611aaa565b925060208a01995050600181019050611ae2565b50829750879550505050505092915050565b60006020820190508181036000830152611b468184611ab7565b905092915050565b600067ffffffffffffffff821115611b6957611b686114bf565b5b602082029050602081019050919050565b600080fd5b6000611b92611b8d84611b4e565b61151f565b90508083825260208201905060208402830185811115611bb557611bb4611b7a565b5b835b81811015611bde5780611bca88826113f2565b845260208401935050602081019050611bb7565b5050509392505050565b600082601f830112611bfd57611bfc6114b5565b5b8135611c0d848260208601611b7f565b91505092915050565b600080600080600060a08688031215611c3257611c316113c7565b5b600086013567ffffffffffffffff811115611c5057611c4f6113cc565b5b611c5c888289016115bc565b9550506020611c6d888289016113f2565b945050604086013567ffffffffffffffff811115611c8e57611c8d6113cc565b5b611c9a88828901611be8565b935050606086013567ffffffffffffffff811115611cbb57611cba6113cc565b5b611cc788828901611be8565b925050608086013567ffffffffffffffff811115611ce857611ce76113cc565b5b611cf488828901611be8565b9150509295509295909350565b611d0a816113d1565b82525050565b6000604082019050611d256000830185611d01565b611d326020830184611d01565b9392505050565b7f4e487b7100000000000000000000000000000000000000000000000000000000600052602260045260246000fd5b60006002820490506001821680611d8057607f821691505b602082108103611d9357611d92611d39565b5b50919050565b60008190508160005260206000209050919050565b60006020601f8301049050919050565b600082821b905092915050565b600060088302611dfb7fffffffffffffffffffffffffffffffffffffffffffffffffffffffffffffffff82611dbe565b611e058683611dbe565b95508019841693508086168417925050509392505050565b6000819050919050565b6000611e42611e3d611e38846113d1565b611e1d565b6113d1565b9050919050565b6000819050919050565b611e5c83611e27565b611e70611e6882611e49565b848454611dcb565b825550505050565b600090565b611e85611e78565b611e90818484611e53565b505050565b5b81811015611eb457611ea9600082611e7d565b600181019050611e96565b5050565b601f821115611ef957611eca81611d99565b611ed384611dae565b81016020851015611ee2578190505b611ef6611eee85611dae565b830182611e95565b50505b505050565b600082821c905092915050565b6000611f1c60001984600802611efe565b1980831691505092915050565b6000611f358383611f0b565b9150826002028217905092915050565b611f4e82611231565b67ffffffffffffffff811115611f6757611f666114bf565b5b611f718254611d68565b611f7c828285611eb8565b600060209050601f831160018114611faf5760008415611f9d578287015190505b611fa78582611f29565b86555061200f565b601f198416611fbd86611d99565b60005b82811015611fe557848901518255600182019150602085019450602081019050611fc0565b868310156120025784890151611ffe601f891682611f0b565b8355505b6001600288020188555050505b505050505050565b7f496420697320696e76616c69642c20656e74657220612076616c696420696400600082015250565b600061204d601f83611434565b915061205882612017565b602082019050919050565b6000602082019050818103600083015261207c81612040565b9050919050565b7f546865206e616d65206d7573742068617665206d6f7265207468616e2074776f60008201527f2063686172616374657273000000000000000000000000000000000000000000602082015250565b60006120df602b83611434565b91506120ea82612083565b604082019050919050565b6000602082019050818103600083015261210e816120d2565b9050919050565b7f4e487b7100000000000000000000000000000000000000000000000000000000600052601160045260246000fd5b600061214f826113d1565b91507fffffffffffffffffffffffffffffffffffffffffffffffffffffffffffffffff820361218157612180612115565b5b600182019050919050565b7f6e657720706f6b656d6f6e2063726561746564207375636365737366756c6c7960008201527f2100000000000000000000000000000000000000000000000000000000000000602082015250565b60006121e8602183611434565b91506121f38261218c565b604082019050919050565b600060408201905061221360008301846116a7565b8181036020830152612224816121db565b905092915050565b6000612237826113d1565b9150612242836113d1565b9250828202612250816113d1565b9150828204841483151761226757612266612115565b5b5092915050565b6000612279826113d1565b9150612284836113d1565b925082820190508082111561229c5761229b612115565b5b9291505056fea2646970667358221220dbb7bd790a8a9a00ee82cdfc484455af414d7134643fe8e5e50a1b2672e5bdf064736f6c63430008120033",
  "linkReferences": {},
  "deployedLinkReferences": {}
}